:020000040800F2
:10000000D05E0020B50200083115000899030008F1
:100010002F1500082B150008F11C00080000000037
:10002000000000000000000000000000511C00085B
:100030002D1500080000000023030008531C0008D1
:10004000CF020008CF020008CF020008CF0200084C
:10005000CF020008CF020008CF020008CF0200083C
:10006000CF020008CF020008CF020008CF0200082C
:10007000CF020008CF020008CF020008CF0200081C
:10008000CF020008CF020008CF020008CF0200080C
:10009000CF020008CF020008CF020008CF020008FC
:1000A000CF020008CF020008CF020008CF020008EC
:1000B000CF020008CF020008CF020008CF020008DC
:1000C000CF020008CF020008CF020008CF020008CC
:1000D000CF020008D91C0008CF020008CF02000898
:1000E000CF020008CF020008CF020008CF020008AC
:1000F000CF020008CF020008CF020008CF0200089C
:10010000CF020008CF020008CF020008CF0200088B
:10011000CF020008CF020008CF020008CF0200087B
:10012000CF020008CF020008CF020008CF0200086B
:10013000CF020008CF020008CF020008CF0200085B
:10014000CF020008CF020008CF020008CF0200084B
:1001500000000000CF020008CF020008CF02000814
:10016000CF020008CF0200080000000000000000DD
:100170000000000000000000CF020008CF020008CD
:10018000CF02000800000000CF020008CF020008E4
:10019000000000000000000000000000000000005F
:1001A000CF020008CF02000800F002F800F072F859
:1001B0000AA090E8000C82448344AAF10107DA45C2
:1001C00001D100F067F8AFF2090EBAE80F0013F0A2
:1001D000010F18BFFB1A43F00103184730EB000072
:1001E00050EB00000A444FF0000C10F8013B13F0F4
:1001F000070408BF10F8014B1D1108BF10F8015B80
:10020000641E05D010F8016B641E01F8016BF9D172
:1002100013F0080F1EBF10F8014BAD1C0C1B09D1C9
:100220006D1E58BF01F801CBFAD505E014F8016B3B
:1002300001F8016B6D1EF9D59142D6D370470000CD
:100240000023002400250026103A28BF78C1FBD8DF
:10025000520728BF30C148BF0B607047642900F0C7
:100260009D81752900F09A81782900F0D3810020C2
:1002700070471FB500F048FE0400002000210DF07B
:100280000BFE401C606000F05FFD1FBD10B500F06C
:10029000C4FD10BD00F012FE1146FFF7EAFF09F0A1
:1002A00019FA00F0EDFF03B4FFF7F0FF03BC02F012
:1002B000DBFD00000948804709480047FEE7FEE7EC
:1002C000FEE7FEE7FEE7FEE7FEE7FEE7FEE7FEE706
:1002D00004480549054A064B70470000651C0008A4
:1002E000A9010008D01E0020D05E0020D03E0020D2
:1002F000D03E0020EFF3108072B6704780F3108874
:100300007047314A1368012B04D04FF0010313608A
:100310002E4A10602E4A11602E484FF08051016025
:100320007047EFF3108272B62748016891B14FF021
:10033000000101602548016829B1EFF3098121E935
:10034000F00F00680160224909680968B1E8F00F00
:1003500081F3098882F310884EF0040E70471C491F
:1003600008601A494FF00000086017494FF001007B
:10037000086019484FF47F01D0F8002041EA0201DB
:10038000016014484FF08051016014480068006813
:1003900080F3088862B670471EF0040F14BFEFF3B5
:1003A0000880EFF3098020E9F00F40F804ED14BF56
:1003B00080F3088880F3098800B50AF0C7FB5DF870
:1003C00004EB4EF0040E7047F0000020E80000201F
:1003D000EC00002004ED00E020ED00E008ED00E07E
:1003E00070477047704753EA020C00F069802DE9AE
:1003F000F04B4FF00006002B1FBFB3FA83F503FA52
:1004000005F424FA05F65E4012BF1643B2FA82F5EF
:1004100002FA05F4C5F120051EBF22FA05FC44EAE4
:100420000C04203556EA044C4FEA144418BF641CEF
:100430004FF000084FF00009904271EB030C39D3E4
:10044000002919BFB1FA81F701FA07F6B0FA80F76F
:1004500000FA07F6C7F120071EBF20FA07FC46EA9C
:100460000C062037B6FBF4FCA7EB0507103F07F09E
:100470001F0BCBF120060CFA0BFB2CFA06F644BF3F
:10048000B3460026202FA4BF5E464FF0000B5BEA68
:10049000060C08BF4FF0010B19EB0B09ABFB027CFC
:1004A00048EB0608C01B06FB02CC0BFB03CC71EB30
:1004B0000C01C1E70B46024641464846BDE8F08BB9
:1004C00013B54FF000004FF00001AFF30080BDE81E
:1004D0001C40704710B54C1084EA530404D54042C8
:1004E000C1F1000138BF491E1B4204D55242C3F17D
:1004F000000338BF5B1EFFF776FF14F0804F04D077
:100500004042C1F1000138BF491E14F0004F04D031
:100510005242C3F1000338BF5B1E10BD0FB4044943
:1005200010B503AA029800F045FB10BC5DF814FB5F
:10053000C81D00202DE9F0410E460446002020622F
:100540002046E168884730B3252805D0D4E9012149
:100550009047206A401CF2E7E16820460027884760
:10056000050018D0A5F14100192802D820354FF414
:1005700000673246294620462760FFF76FFE40B1EC
:10058000012804D0F61D26F007060836D8E7361DE8
:10059000D6E72846DAE7206ABDE8F0812DE9F04188
:1005A0000646002410687529314616A510D0AFF311
:1005B0000080002802DA404213A507E031688A076C
:1005C00001D512A502E0490704D511A5012401E0D7
:1005D000AFF3008000210A2206F1240709E0B0FBF6
:1005E000F2FCB0FBF2F302FB1C00303078541846EA
:1005F000491C0028F3D123462A463046BDE8F04185
:1006000000F07EBA000000002D0000002B0000006A
:100610002000000070B504460D4621461068AFF377
:1006200000802188090502D50F4A7A4402E00E4A6B
:100630007A440E32002104F1240305E000F00F0695
:100640000009965D5E54491C0028F7D120780023EC
:10065000000704D5702D02D009B1022311322046C3
:10066000BDE8704000F04CBAA2DF000070B506464D
:1006700000F042FA0468054630460A22002100F0E4
:10068000ABFA2C6070BD002000F0DEFAFFF7FEFD33
:10069000012002F0E9FB401ECAB210F8011F8A4295
:1006A00002D00029F9D10020704730B503461D78EB
:1006B0001DB10A4603E0AC4201D1181A30BD12F850
:1006C000014B002CF7D15B1CF1E730B503461D78D8
:1006D0003DB10A4612F8014B1CB1AC42FAD15B1C89
:1006E000F5E7181A30BD40EA010310B59B070FD19A
:1006F000042A0DD310C808C9121F9C42F8D020BA92
:1007000019BA884201D9012010BD4FF0FF3010BD49
:100710001AB1D30703D0521C07E0002010BD10F817
:10072000013B11F8014B1B1B07D110F8013B11F8DD
:10073000014B1B1B01D1921EF1D1184610BD40EA9E
:100740000103024630B59B0710D14FF0013400E0A1
:1007500008C208C91D1B9D4315EAC41FF8D013F039
:10076000FF0102F8011B0DD01B0AF8E711F8013B4D
:10077000002B02F8013B05D011F8013B002B02F8D9
:10078000013BF3D130BD0022CBB210F8011B9942DE
:1007900000D1421E0029F8D11046704710B5431C05
:1007A00002E010F8011B71B18107FAD14FF001325C
:1007B00002C88C1A8C4314EAC211F9D0C01A0A0676
:1007C00003D0C01E10BDC01A10BD0A0401D0801E87
:1007D00010BD0902FCD0401E10BD40EA010370B5F7
:1007E0009B072ED14FF00136042A2AD308C810C91E
:1007F0009D1B9D43121F15EAC61517D0D8B2E1B252
:10080000401A50EA056110D198B2A1B2401A50EADC
:1008100005410AD123F07F4024F07F41401A50EA7D
:10082000052102D1180EA0EB146070BDA342DBD0ED
:1008300018BA21BA884201D9012070BD4FF0FF30AB
:1008400070BD0AB9002070BD10F8013B11F8014BD2
:1008500063B1A3420AD1521E08D010F8013B11F82F
:10086000014B1BB1A34201D1521EEDD1181B70BD2B
:10087000421E12F8013F002BFBD111F8013B002B67
:1008800002F8013BF9D17047032A40F2308010F0A2
:10089000030C00F0158011F8013BBCF1020F62441B
:1008A00098BF11F801CB00F8013B38BF11F8013BAC
:1008B000A2F1040298BF00F801CB38BF00F8013B59
:1008C00011F0030300F02580083AC0F0088051F8C9
:1008D000043B083A51F804CBA0E80810F5E7121DD4
:1008E0005CBF51F8043B40F8043BAFF30080D207F3
:1008F00024BF11F8013B11F801CB48BF11F8012BBF
:1009000024BF00F8013B00F801CB48BF00F8012BE1
:10091000704710B5203AC0F00B80B1E81850203A6B
:10092000A0E81850B1E81850A0E81850BFF4F5AF8F
:100930005FEA027C24BFB1E81850A0E8185044BF19
:1009400018C918C0BDE810405FEA827C24BF51F886
:10095000043B40F8043B08BF7047D20728BF31F87A
:10096000023B48BF11F8012B28BF20F8023B48BFCB
:1009700000F8012B704702F0FF0343EA032242EA2A
:10098000024200F002B84FF000020429C0F01280C9
:1009900010F0030C00F01B80CCF1040CBCF1020F32
:1009A00018BF00F8012BA8BF20F8022BA1EB0C0107
:1009B00000F00DB85FEAC17C24BF00F8012B00F8FD
:1009C000012B48BF00F8012B70474FF0000200B523
:1009D000134694469646203922BFA0E80C50A0E862
:1009E0000C50B1F12001BFF4F7AF090728BFA0E810
:1009F0000C5048BF0CC05DF804EB890028BF40F8DC
:100A0000042B08BF704748BF20F8022B11F0804F1D
:100A100018BF00F8012B704710B5044610F0030F03
:100A200008BF11F0030F40F015804FF0013E121F78
:100A3000C0F20E8051F8043BA3EB0E0C2CEA030C21
:100A40001CEACE1C08BF40F8043BF0D0A1F1040121
:100A500002F10402521E08DB11F8013B002B00F8E2
:100A6000013BF7D11146FFF78EFF204610BD000075
:100A70004FF0013C50F8042B51F8043B9A4221D12D
:100A8000A2EB0C03934313EACC1317D150F8042BB9
:100A900051F8043B9A4215D1A2EB0C03934313EA9D
:100AA000CC130BD150F8042B51F8043B9A4209D1D6
:100AB000A2EB0C03934313EACC13DBD04FF00000FE
:100AC000704700BFD01A01BAB1FA81F101F01801E4
:100AD00022FA01F0CB40C1F12001DBB2C0B2C01A52
:100AE0002CFA01F3D11A914311EAC311E6D17047F0
:100AF000704770477047000000487047701E002024
:100B00002DE9F0470D4699469246044600F1240827
:100B10000168880604D5E06921F01001216000E039
:100B20000120A84201DD471B00E00027A1697A19D6
:100B300002EB0900081AA0612078C00602D4204602
:100B4000AFF30080002608E0D4E901211AF806007E
:100B50009047206A401C761C20624E45F4DB2078CA
:100B6000C0060AD52046AFF3008006E0D4E9012193
:100B700030209047206A401C2062381EA7F10107F0
:100B8000F4DC07E0D4E9012118F805009047206A59
:100B9000401C2062281EA5F10105F3DC2046AFF3BE
:100BA00000802078000602D50220BDE8F0870120F1
:100BB000FBE70000074B70B50D467B4400F05DF885
:100BC0000446284600F0BBF810B14FF0FF3070BD6E
:100BD000204670BDE34A00002DE9F04791460F46DC
:100BE00080460446002614F8015B2DB100F038F869
:100BF0000068405DC007F6D12B2D02D02D2D18D0F6
:100C0000641E4A463946204600F04AF827B1396842
:100C1000A14201D1C7F800804FF0020471050BD545
:100C20004042002803DDFFF767FF0460A007BDE82E
:100C3000F08746F48066E4E70028F8DAFFF75CFF07
:100C400004606FF00040F2E710B500F01FF9BDE856
:100C5000104000F015B9000000487047701E0020D9
:100C600010B500F051F9001D10BD00BF2DD20000DD
:100C700001694A1C02610878704700B58FB0CDE960
:100C800001310021059105497944CDE90310114650
:100C90006846FFF74FFC0FB000BD0000E5FFFFFF07
:100CA0002DE9F05F824615468B4600270AF10104C4
:100CB000B9460078302801D09DB113E014F8010B3B
:100CC0000127782803D0582801D045B10AE00DB19A
:100CD000102D07D1002714F8010B102502E008257C
:100CE00000E00A250026B0460EE005FB080005FBE3
:100CF00006F101271FFA80F801EB1046B6F5803F98
:100D000000D3B94614F8010B294600F001F9002878
:100D1000EBDABBF1000F05D00FB1641E00E05446C2
:100D2000CBF80040B9F1000F06D0FFF7E5FE022135
:100D30000160C81EBDE8F09F48EA0640FAE7007B64
:100D400000F080007047000010B542485421FFF7C2
:100D50003CFE41485421FFF738FE40485421FFF73C
:100D600034FE3F493B483C4A3F4B08603D490A60DE
:100D70003A491960531C0365481C10650120086539
:100D80003B48344A39A1784400F0DEF920B93848AC
:100D900078440A3800F093FA37482F4A35A178444E
:100DA00000F0D2F920B9344878440A3800F087FAC4
:100DB00032482A4A2FA1784400F0C6F920B92F48BA
:100DC00078440A3800F07BFA40232248DC000021F6
:100DD000224600F096F920B125487844543800F0B6
:100DE0006EFA1D4822464023002100F08AF920B106
:100DF00021487844543800F062FA184822461023FB
:100E0000002100F07EF9002806D01C487844BDE897
:100E10001040563800F053BA10BD104870B5006D40
:100E200020F001040B4800F005FA0B4800F002FA2C
:100E30000A4800F0FFF909E0206D20F00105204686
:100E400000F0F8F9204604F038FC2C46002CF3D1D1
:100E500070BD0000741D0020C81D00201C1E002055
:100E6000F0010020F4010020F801002072000000D1
:100E7000B2D4000077000000A0D400008FD400009E
:100E8000002801D001F0F0BF7047000010B500212C
:100E900002A000F0FBF9012010BD000053494741BA
:100EA0004252543A2041626E6F726D616C207465DB
:100EB000726D696E6174696F6E0000007546FFF7B0
:100EC000CBFEAE4605006946534620F00700854636
:100ED00018B020B5FFF7FCF9BDE820404FF0000640
:100EE0004FF000074FF000084FF0000B21F0070112
:100EF000AC46ACE8C009ACE8C009ACE8C009ACE855
:100F0000C0098D467047000000487047901E0020C1
:100F10003A2800D2303820F02002412A01D3A2F131
:100F20003700884201D34FF0FF3070472DE9F0477A
:100F300005460C46C86820F4201040F48000C860C4
:100F4000800602D5084600F094FAE06841F282017A
:100F50004FF0FF390140022903D0204600F032FA59
:100F6000B5E000F42041B1F5004F0FD1C00306D524
:100F70006168E06A884200D80846606006E020693F
:100F8000E0626060606901F070FFA061A06800220B
:100F9000EEB200280DDAE1688B050AD4C043A060E8
:100FA00041F490302260E0606068411C616006702E
:100FB000A5E0E0689046226040F40050E0602069BF
:100FC00068BB606901F054FF012704F12405A0B15A
:100FD000A08910F4407F08D0E06908F0A5FB2061EB
:100FE00018B1E06840F4006016E0E7612561E06850
:100FF00020F4407040F480600EE0E06908F094FB5B
:1010000000282061F1D0E06840F4006010F4407FD7
:10101000E06002D140F48070E06020696060E068C8
:1010200025696FF0010AC1051FD56168E06A884231
:1010300000D80846411B04D02246284600F0CCF9CF
:10104000F0BBE068010203D5E562C4E9015854E051
:10105000691CE1626160E16940F48030491EC4E9C5
:10106000021030462E70BDE8F087010202D500F470
:1010700080320AE06068411C61600670E0680A2EF8
:1010800040F48030E06006D00022E16A606881426E
:1010900003D90B4602E00122F7E70346A7895B1B51
:1010A0007F0503D4E7699F4200DDE2B1814200D8A9
:1010B0000146E5620F1AC4E90158002B09DD00E082
:1010C00005E022461946284600F086F908B1484650
:1010D000C9E747B1A069E5626560C01BA061E0682F
:1010E00040F01000E060E068000208D56168A06987
:1010F000E562491B08446560A0615046B3E730468D
:10110000B1E770B5C468A50713D0650211D4B2F574
:10111000807F09D0B2F5007F06D0B2F5806F08D18C
:10112000012300F1240106E05D1E6FF07F46B54209
:1011300001D3012070BD0161C361416024F470617D
:101140001143C160002070BD2DE9F0410C460746F7
:101150001646104600F06EF82078611C61280AD00F
:10116000722802D077283CD102E00125002405E056
:101170000225042402E0082448F2020511F8010BBC
:101180002B2806D0622809D011F8010C74280AD047
:101190000BE045F0030544F00204EFE745F00405D9
:1011A00044F00104EAE744F010043846214601F017
:1011B00061FE411C15D00021316171604FF4007156
:1011C000F560F1617061200704D5304602220021EC
:1011D00000F07CF8306D40F0010030653046BDE82D
:1011E000F0810020FBE72DE9F0410D460646104C4A
:1011F000206DC10704D0410804D020F00104F7E7B6
:1012000022460EE0542008F08FFA07000ED0206D21
:1012100047F001010843542120653846FFF7D5FB0C
:101220003A4629463046BDE8F0418DE70020D6E732
:10123000741D00202DE9F04704464FF000094FF0DF
:10124000FF37C568D4E90486A80707D0204600F018
:10125000EDF8304601F006FE002802DA3846BDE817
:10126000F087280502D5404604F027FA4C21204695
:10127000FFF7ABFB206D20F0010020654846EEE74C
:101280000446AFF300802046FFF70DF870B5054621
:101290000C460A2000E06D1C01F024FE35B12878D0
:1012A0000028F8D102E0641C01F01CFE14B1207883
:1012B0000028F8D1BDE870400A2001F013BE10B537
:1012C00000F0F8F8BDE81040FFF7DABD2DE9F04175
:1012D000044616460D464769007B80072ED03846E7
:1012E00001F0C6FD50BB3EB3012E02D0022E25D127
:1012F00004E0204600F0F8F805441DE0384601F00F
:10130000B4FDE168002841F01001E16005DA2046F3
:1013100000F058F80120BDE8F081C9030BD56268E0
:10132000E16A914200D81146A26911442269891AE2
:10133000814200DD08460544002D01DA0220EAE77B
:10134000E16A6068E268814206D29103E06203D5F7
:1013500022F4003141F01002A6690027AE4213DCEE
:10136000E16A814201D90B4600E0034603EB060C1B
:101370002369ACEB030CAC4506DD814201D98C46F8
:1013800000E084469C4505D1A760276042F020001C
:10139000A5620DE0AD1BE669AE1B8142A66000D9D7
:1013A0000846C01A281A20605819606022F02000F0
:1013B00003490840E060002084F84870ABE7000073
:1013C000BFCFD7FFC16821F4001141F08001C16097
:1013D00000218160016070472DE9F0478146144685
:1013E0000E464FF0FF383248D5685769054209D09C
:1013F0003846A16901F05CFD002811DB2C48C04390
:101400000540E5602B4632464946384601F053FD1B
:10141000A16920F00042B21A11440028A16103D052
:101420002046FFF7CFFF4046BDE8F08770B5044681
:101430000569C06A6168884200D80846E16821F4FD
:101440002011E160C90312D5A84208D02246411BF1
:101450002846FFF7C1FF10B14FF0FF3070BD0020EC
:10146000E562C4E90150E06820F48030E0600020CB
:1014700070BD10B50446C06820F02000E060A16A8D
:10148000A06988420DD02046FFF7D0FFE06820F425
:10149000405040F01000E060A06AA0612069E06266
:1014A000606044F24001E0688843E06010BD0000E5
:1014B0001000020010B5014602A0FFF7E7FE012070
:1014C00010BD000053494752545245443A205265DA
:1014D0006469726563743A2063616E2774206F706B
:1014E000656E3A200000000010B50146C268900702
:1014F00003D0900607D5886A0AE0FFF7FDFA0121BC
:101500000160881E10BD8B69486818440B69C01AB9
:1015100091F848301BB191F84910401A10BD1103E1
:10152000FCD50028FADD401E10BDFEE77047FEE73F
:10153000704700214FF0006008F012BA05490868B2
:1015400010F8082D10F8043F1A4400F8042C086025
:1015500070470000640100200349086870E9022315
:101560001A4404C0086070476401002005490868F7
:1015700030F8082D30F8043F1A4420F8042C086095
:1015800070470000640100200549086810F8082D24
:1015900010F8043F1A4000F8042C0860704700005F
:1015A000640100200349086870E902231A4004C05E
:1015B00008607047640100200549086830F8082D6C
:1015C00030F8043F1A4020F8042C086070470000EF
:1015D000640100200348006810F8041DC94301702D
:1015E00070470000640100200348006850F8041DA3
:1015F000C94301607047000064010020034800688F
:1016000030F8041DC94301807047000064010020C8
:1016100070B57A4A9CB07A4D11680CAB11F8010B89
:1016200011602A680021121F2A6008E0461A03EBA5
:10163000860652F8044946F8044C491C2A60814247
:10164000F4D3146811287DD2DFE800F0090B0E12E4
:10165000171C232C36404D5C6C7D90A5BB000020F0
:1016600000E00C98A047C3E0DDE90C01A047BFE013
:101670000CAB93E80700A047BAE00CAE96E80F0069
:10168000A047B5E010980CAE009096E80F00A04778
:10169000AEE0DDE910010CAECDE9000196E80F00E7
:1016A000A047A5E010AB0CAE93E807008DE807005B
:1016B00096E80F00A0479BE010AE96E80F008DE87B
:1016C0000F000CAE96E80F00A04791E011AE96E82F
:1016D0000F0001AE86E80F0010980CAE009096E85F
:1016E0000F00A04784E012AE96E80F0002AE86E835
:1016F0000F00DDE910010CAECDE9000196E80F0006
:10170000A04775E013AE96E80F0003AE86E80F0021
:1017100010AB0CAE93E807008DE8070096E80F00C9
:10172000A04765E014AE96E80F0004AE86E80F000F
:1017300010AE96E80F008DE80F000CAE96E80F0093
:10174000A04755E053E015AE96E80F0005AE86E8D9
:101750000F0011AE96E80F0001AE86E80F0010985A
:101760000CAE009096E80F00A04741E016AE96E858
:101770000F0006AE86E80F0012AE96E80F0002AE2C
:1017800086E80F00DDE910010CAECDE9000196E816
:101790000F00A0472CE017AE96E80F0007AE86E8D2
:1017A0000F0013AE96E80F0003AE86E80F0010ABF3
:1017B0000CAE93E807008DE8070096E80F00A047FD
:1017C00016E018AE96E80F0008AE86E80F0014AEDB
:1017D00096E80F0004AE86E80F0010AE96E80F0002
:1017E0008DE80F000CAE96E80F00A04700E0002047
:1017F000296801C129601CB070BD0000680100208B
:10180000640100200549086810F8082D10F8043F0D
:10181000B2FBF3F200F8042C08607047640100206A
:101820000449086870E9022392FBF3F204C00860DF
:1018300070470000640100200549086830F9082D50
:1018400030F9043F92FBF3F220F8042C0860704753
:10185000640100200548064A01680B78116801F808
:10186000043B11600168491C016070476801002059
:101870006401002006480168CA780B6862F31F63A0
:10188000044A116808C111600168091D01607047B0
:10189000680100206401002007480168CA780968CF
:1018A00062F31F61054A0B78116801F8043B11606F
:1018B0000168091D01607047680100206401002073
:1018C0000348006850F8041D097801707047000053
:1018D0006401002007480168CA78096862F31F6143
:1018E000054A0B68116808C111600168091D016093
:1018F0007047000068010020640100200348006870
:1019000050F8041D09680160704700006401002060
:1019100007480168CA78096862F31F61054A0B88A5
:10192000116821F8043B11600168091D01607047CE
:1019300068010020640100200348006850F8041D7D
:101940000988018070470000640100200548064AAC
:1019500001680B88116821F8043B11600168891C3B
:10196000016070476801002064010020074910B53C
:10197000086810F8082D10F8043FB2FBF3F403FBDD
:10198000142200F8042C086010BD0000640100203F
:10199000054910B5086870E9022392FBF3F403FBD4
:1019A000142204C0086010BD64010020074910B56E
:1019B000086830F9082D30F9043F92FBF3F403FB7B
:1019C000142220F8042C086010BD000064010020DF
:1019D0000549086810F8082D10F8043F5A4300F82C
:1019E000042C086070470000640100200349086867
:1019F00070E902235A4304C0086070476401002064
:101A00000549086830F8082D30F8043F5A4320F89B
:101A1000042C08607047000064010020704700003B
:101A20000549086810F8082D10F8043F1A4300F81B
:101A3000042C086070470000640100200349086816
:101A400070E902231A4304C0086070476401002053
:101A50000549086830F8082D30F8043F1A4320F88B
:101A6000042C0860704700006401002002480168EF
:101A7000091F0160704700006401002005490868E3
:101A800010F8082D10F8043F9A4000F8042C086064
:101A900070470000640100200549086850F8082DCF
:101AA00010F8043F9A4040F8042C0860704700008A
:101AB000640100200549086830F8082D10F8043F3B
:101AC0009A4020F8042C0860704700006401002050
:101AD0000549086810F8082D10F8043FDA4000F8AE
:101AE000042C086070470000640100200549086864
:101AF00050F8082D10F8043F1A4140F8042C0860F3
:101B000070470000640100200549086830F9082D7D
:101B100010F8043F1A4120F8042C086070470000B8
:101B2000640100200548016811F8042C51F8081CD4
:101B30000A700168091F01607047000064010020FD
:101B400004480168083906C90A600168091F016074
:101B500070470000640100200548016831F8042C3A
:101B600051F8081C0A800168091F016070470000D5
:101B7000640100200549086810F8082D10F8043F9A
:101B8000D21A00F8042C086070470000640100209D
:101B90000349086870E90223D21A04C0086070473C
:101BA000640100200549086830F8082D30F8043F2A
:101BB000D21A20F8042C086070470000640100204D
:101BC0000549086810F8082D10F8043F5A4000F83D
:101BD000042C086070470000640100200349086875
:101BE00070E902235A4004C0086070476401002075
:101BF0000549086830F8082D30F8043F5A4020F8AD
:101C0000042C0860704700006401002010B540F209
:101C1000046008F0D1FB0D4C012303221021204663
:101C200003F066FD042303221021204603F060FD2B
:101C30000121204607F03EFE0421204607F03AFE2F
:101C400000218E2002F016F9002010BD0010014086
:101C5000704710B509F05CF90AF068FEBDE8104065
:101C600009F06EB91748016841F00101016041684F
:101C7000154A114041600168144A11400160016831
:101C800021F4802101604168114A114041600168DE
:101C900021F0A05101600021C1624FF47F028260F7
:101CA000C0F88010D0F8901021F08051C0F890104A
:101CB0004FF48001C0F894100649C0F898100BF05A
:101CC0000DBC0000001002400C00FFE0FFFFF6FE1C
:101CD000FFFF00DF1030002010B509F019F90348AC
:101CE0000BF0ECFEBDE8104009F02AB91805002001
:101CF000FEE70000002806D00E4910F0FF0F03D0C9
:101D0000C0B2085C401C704710F47F4F04D0C0F391
:101D10000720085C0930704710F47F0F04D0C0F32F
:101D20000740085C1130704701EB106000781930F3
:101D300070470000C4DE000870B505464FF0FF3163
:101D40000D4809F029FB68882C6A022804F1040177
:101D500020680DD005F022FE0546204608F09CFEC6
:101D6000054809F0CDFA2846BDE8704000F020BCD7
:101D700004F078FAF0E70000141D002010B50446C6
:101D80004FF0FF31074809F007FB216A01C906F04F
:101D90001CF90446034809F0B3FA2046BDE8104098
:101DA00000F006BC141D00202DE9F04F8A46804645
:101DB000C3B014464FF0FF31344809F0EDFA4FF448
:101DC000827BB4FBFBF000EB80108000D8F8206031
:101DD0005FEA00090FD002A80024429004EB8411AE
:101DE0000AEB81056A46311D306805F0E9FB0746BC
:101DF000012834D107E0254809F082FA6FF01C0071
:101E000043B0BDE8F08F9DF8080040B320A1429890
:101E10000AF0E1FA0028E1D01EA142980AF0DBFAAC
:101E20000028DBD0002028709DF80000012801D098
:101E3000022800D1287042980AF0EBFA6870A5F8E1
:101E400002B042980AF0E5FA421C281D42990AF0B5
:101E5000F8FA641C04EB8411B9EB810FBED874B19D
:101E6000D8F81C0004EB841100EB81010748C8F886
:101E70001C1009F045FA04EB84108000C0E7034809
:101E800009F03EFA384600F093FBB9E7141D002034
:101E90002E0000002E2E00006FF02C007047000076
:101EA00070B50E4605464FF0FF31144809F074FA3C
:101EB00068882C6A10B102280AD01AE00023324642
:101EC000211D206806F05CF8060008D4A06B0FE026
:101ED0003246211D206805F0C5FB060007D50748DE
:101EE00009F00EFA3046BDE8704000F061BBE06AD0
:101EF000E861024809F004FAE86970BD141D002089
:101F00002DE9F04706006FF01C040CD061113B482E
:101F100009F042FA307D032808D0384809F0F0F97A
:101F200037A009F067F82046BDE8F087304600F09A
:101F3000B9FA04463B4D401C4FF000090CD0A846AE
:101F400055F82450284607F080F9070037D02B4871
:101F500009F0D6F938464CE0002000F0A3FA074615
:101F6000401C18D0C02009F0A7F804001CD0C022E3
:101F7000002109F05FF904F178003146054600F0D0
:101F8000EDFA2946204606F05BF904461B4809F0A5
:101F9000B7F920462DE0194809F0B2F922A009F05E
:101FA00029F86FF02200BFE745F82790134809F0A1
:101FB000A7F927A009F01EF86FF01200B4E748F85F
:101FC000249005F178018946284606F039F9070082
:101FD000BDD13146484600F0C1FA4946284606F0D0
:101FE00023FE060001D148F82450044809F088F97E
:101FF0003046BDE8F04700F0DBBA0000141D0020B9
:1020000054686520666C61736820646576696365F1
:102010002074797065206D757374206265204D544D
:1020200044210A00EC010020736F7272792C207435
:1020300068657265206973206E6F207370616365D7
:1020400020746F20646F206D6B6673210A0000009E
:102050004552524F523A6E6F206D656D6F72792105
:102060000A0000002DE9F04105460068007D0328C4
:1020700006D023A008F0BEFF6FF01C00BDE8F08181
:102080004FF0FF31274809F087F9002000F00AFAE5
:102090000646401C6FF00B071BD0C02009F00CF85F
:1020A00004001AD0C022002109F0C4F804F178001D
:1020B0008046296800F052FA4146204606F0B4FDF9
:1020C000A0B1184809F01CF9204608F0E5FC384694
:1020D000D4E7144809F014F9F9E7124809F010F9A7
:1020E00011A008F087FF6FF01200C7E71348EC60FB
:1020F00040F826400B4809F003F90020BEE7000035
:1021000054686520666C61736820646576696365F0
:102110002074797065206D757374206265204D544C
:1021200044210A00141D00204552524F523A6E6F4E
:10213000206D656D6F7279210A000000EC010020AE
:102140002DE9F04105460024611E404809F024F9BC
:10215000286A6FF01208C7686869C0034FF058001A
:1021600028D508F0A9FF04000ED05822002109F05C
:1021700061F82760297D384649060AD5696806F066
:10218000A7FC06000CD104E031A008F033FF46465E
:1021900009E06A68211D206805F0CAF9060007D029
:1021A000204608F079FC294809F0AAF830463DE0BD
:1021B0002C6244E008F080FF060008D0582200217D
:1021C00009F038F837606869810705D005E020A07C
:1021D00008F010FF444625E0012400F00301012926
:1021E00001D144F00204022901D144F00304410664
:1021F00001D544F48074010601D544F400748105CE
:1022000001D544F48064400501D544F400642346BC
:10221000311D38466A6805F06BFC04000AD0304670
:1022200008F03AFC094809F06BF82046BDE8F04197
:1022300000F0BEB92E62B06BE861306BA861034854
:1022400009F05EF80020BDE8F0810000141D0020B8
:102250004552524F523A6E6F206D656D6F72792103
:102260000A0000002DE9F0410F46054616464FF0E2
:10227000FF31124809F090F86888022810D02C6AC3
:1022800033463A46211D206805F06AFD06000ED54A
:102290000A4809F035F83046BDE8F04100F088B949
:1022A000064809F02DF86FF01B00BDE8F081A06B27
:1022B000E861024809F024F83046F6E7141D0020D2
:1022C00070B50E46044615464FF0FF31084809F038
:1022D00063F82A463146E06806F0A2FE0446044848
:1022E00009F00EF82046BDE8704000F061B900002A
:1022F000141D002070B50E460546C2B014464FF0BE
:10230000FF31154809F048F86A463146E86806F09A
:1023100075FF0546104808F0F3FF25B1284600F088
:1023200047F942B070BD40212046FEF74EFB002029
:1023300020600198606140F2FF10E0809DF800008D
:10234000012804D0022805D144F2FF1001E048F230
:10235000FF10E0800020E4E7141D0020F8B50446DB
:1023600000200D46411E00900F4809F015F8E46862
:102370006A460E49204606F019FA060006D00A48B9
:1023800008F0BEFF304600F013F9F8BD54F8940F82
:1023900028606068686060680099401AA860024818
:1023A00008F0AEFF0020F8BD141D0020B123000886
:1023B0000168491C016000207047000070B50D469F
:1023C00004464FF0FF31084808F0E6FF2946E06870
:1023D00006F0BAFD0446044808F092FF2046BDE826
:1023E000704000F0E5B80000141D002070B50446F0
:1023F0004FF0FF31114808F0CFFF206800F052F88D
:10240000411C14D00E4A002142F82010E568E1601A
:10241000284606F01AFF0446084808F071FF2846CF
:1024200008F03AFB2046BDE8704000F0C1B8034810
:1024300008F066FF6FF0080070BD0000141D00205A
:10244000EC0100202DE9F0410F46054616464FF0FD
:10245000FF31134808F0A0FF6888022810D02C6ACA
:1024600033463A46211D206805F014FE06000ED5BD
:102470000B4808F045FF3046BDE8F04100F098B841
:10248000074808F03DFF6FF01B00BDE8F081A06B2E
:10249000E861206BA861024808F032FF3046F4E79B
:1024A000141D00200749096830B1002239B1896F35
:1024B000814204D11046704700200029FBD04FF024
:1024C000FF307047EC01002010B504462F21FEF7C5
:1024D0005AF908B1401C10BD204610BD03480168E0
:1024E000814201D00120704700207047C4000020C5
:1024F00010B502460068D269C36C5143DB68984747
:10250000002801D06FF0040010BD70B505460068CA
:10251000ED69049C01FB0521C56C1A462346AD6894
:10252000A847A04202D06FF0040070BD002070BD2B
:1025300070B505460068ED69049C01FB0521C56C7A
:102540001A4623466D68A847A04202D06FF00400E7
:1025500070BD002070BD0020704700004FF4805215
:102560004261826101600B6CC361934200D2C2611F
:102570008262642242628A6C496C511A01621F3184
:1025800021F01F01C162802901D98021C162044963
:102590004160044981600449C16004490161704798
:1025A000312500080B250008F124000857250008F4
:1025B000014600206FF00B0211F1110F2CD016DC38
:1025C0006FF01B0011F1160F2FD009DC11F1540F21
:1025D00031D011F1270F25D0814219D1C01F70478A
:1025E00011F1150FFBD011F1140F11D117E06FF09D
:1025F000080311F1050F0BD005DC914218D0994268
:1026000006D1C81F704711F1020F03D00029F9D07D
:1026100010467047184670476FF0170070476FF00C
:102620001A0070476FF02D0070476FF01C00704764
:102630006FF0120070476FF033007047F0B597B03D
:10264000064650221A4902A8FEF763F919A7384630
:1026500009F0DFFE0446304607F08CF90546A0423B
:1026600000DA25463A46294614A008F0C3FC28465D
:1026700007F09AF91BA008F0BDFC02AF346811E026
:10268000207AA17BA4F10C03132802D857F820006C
:1026900000E01598CDE90001082229461AA008F0AB
:1026A000A9FC2468B442EBD117B00020F0BD0000B3
:1026B00050E200086465766963650000252D2A2EC6
:1026C0007320202020202020202074797065202075
:1026D0002020202020202072656620636F756E7494
:1026E0000A000000202D2D2D2D2D2D2D2D2D2D2DD1
:1026F0002D2D2D2D2D2D2D2D2D202D2D2D2D2D2D17
:102700002D2D2D2D0A000000252D2A2E2A7320257F
:102710002D32307320252D38640A00002DE9FE4348
:10272000074624A6304609F074FE0446384607F0F2
:1027300021F90546A04200DA2546324629461FA067
:1027400008F058FC284607F02FF925A008F052FCA5
:102750003E6829E0B16806F10800A6F10C04814248
:1027600014D0804608F08DFC218C628CCDE90021CC
:10277000029023460822294620A008F03BFC404650
:102780000AF018FD23A008F035FC0CE008F079FCF5
:10279000218C628CCDE90021029023460822294633
:1027A0001DA008F027FC3668BE42D3D10020BDE84A
:1027B000FE8300006D61696C626F7800252D2A2E02
:1027C0007320656E7472792073697A6520737573EE
:1027D00070656E64207468726561640A00000000B0
:1027E000202D2D2D2D20202D2D2D2D202D2D2D2D4D
:1027F0002D2D2D2D2D2D2D2D2D2D0A00252D2A2E63
:102800002A73202530346420202530346420256448
:102810003A0000000A000000252D2A2E2A732025E8
:102820003034642020253034642025640A00000000
:102830002DE9FF41054607F09DF88046014613A2A9
:1028400014A008F0D7FB404607F0AEF81AA008F035
:10285000D1FB08262C6812E0A4F10C0704F1080053
:1028600008F00FFCF97F3A6A03900096CDE9012148
:102870003B460822414618A008F0BCFB2468AC4245
:10288000EAD104B00020BDE8F08100006D757465E8
:1028900078000000252D2A2E732020206F776E658A
:1028A000722020686F6C642073757370656E64208D
:1028B0007468726561640A00202D2D2D2D2D2D2D3B
:1028C0002D202D2D2D2D202D2D2D2D2D2D2D2D2D52
:1028D0002D2D2D2D2D0A0000252D2A2E2A73202581
:1028E0002D382E2A7320253034642025640A0000F8
:1028F0002DE9FC41074607F03DF80646092800DAB5
:1029000009261CA231461EA008F074FB304607F0D1
:102910004BF822A008F06EFB3D6825E0A96805F1A0
:102920000800A5F10C04814212D0804608F0A9FBF2
:10293000A18BCDE900102346082231461DA008F0E6
:1029400059FB40460AF036FC13A008F053FB0AE09E
:1029500008F097FBA18BCDE90010234608223146F1
:1029600018A008F047FB2D68BD42D7D10020BDE874
:10297000FC81000073656D6170686F726500000016
:10298000252D2A2E73207620202073757370656E96
:1029900064207468726561640A000000202D2D2D8A
:1029A000202D2D2D2D2D2D2D2D2D2D2D2D2D2D0A87
:1029B00000000000252D2A2E2A73202530336420A4
:1029C00025643A00252D2A2E2A73202530336420D1
:1029D00025640A002DE9FC41064606F0CBFF0746B8
:1029E000014625A2264808F005FB384606F0DCFF24
:1029F00024A008F0FFFA356838E000BF95F82900F8
:102A0000A5F10C0400902346082239462DA008F0B9
:102A1000F1FA94F83400012805D0022805D030B12D
:102A2000042806D008E02AA004E02CA002E02EA092
:102A300000E030A008F0DEFAA06A014600E0401C89
:102A40000278232AFBD0E26A401A101A6423584302
:102A5000B0FBF2F3D4F830C0206CCDE9000CE06993
:102A6000081A811826A008F0C5FA2D68B542C5D10C
:102A70000020BDE8FC81000074687265616400009C
:102A80003CE70008202D2D2D20202D2D2D2D2D2D26
:102A90002D202D2D2D2D2D2D2D2D2D2D202D2D2D80
:102AA0002D2D2D2D2D2D2D20202D2D2D2D2D2D207D
:102AB000202D2D2D2D2D2D2D2D2D2D202D2D2D0A83
:102AC00000000000252D2A2E2A73202533642000C3
:102AD0002072656164792020000000002073757306
:102AE00070656E640000000020696E69742020200B
:102AF0000000000020636C6F736520200000000060
:102B000020307825303878203078253038782020EB
:102B100020202530326425252020203078253038AB
:102B20007820253033640A002DE9FC41054606F083
:102B300021FF0646014616A217A008F05BFA3046B0
:102B400006F032FF1EA008F055FA2C6815E000BF11
:102B5000A4F10C031F460822D7E90901CDE90001C1
:102B6000314620A008F046FA787AC00701D023A0A9
:102B700000E025A008F03EFA2468AC42E8D109F054
:102B8000CFFE014624A008F035FA0020BDE8FC8104
:102B900074696D6572000000252D2A2E7320207047
:102BA0006572696F64696320202074696D656F7553
:102BB0007420202020202020666C61670A0000001D
:102BC000202D2D2D2D2D2D2D2D2D2D202D2D2D2D4F
:102BD0002D2D2D2D2D2D202D2D2D2D2D2D2D2D2D32
:102BE0002D2D0A00252D2A2E2A73203078253038E5
:102BF00078203078253038782000000061637469CF
:102C000076617465640A0000646561637469766165
:102C10007465640A0000000063757272656E74204A
:102C20007469636B3A3078253038780A0000000008
:102C30000020704700207047002070470020704738
:102C4000184670471846704710B5816A0A78232ADB
:102C500006D1C2698A4203D9C36A0B4493420CD29B
:102C600001460AA008F0C6F906F098FC07F0E0FB60
:102C7000FDF740FB0028FDD110BD20318A42FBD872
:102C80000146BDE8104008A008F0B4B97468726548
:102C900061643A257320737461636B206F7665728B
:102CA000666C6F770A0000007761726E696E673A32
:102CB00020257320737461636B20697320636C6FCC
:102CC000736520746F20656E64206F662073746175
:102CD000636B20616464726573732E0A00000000E8
:102CE0002DE9FC411F460446DDE90831DDE90A65AE
:102CF000143040600060C4E90827C4E90A310A467C
:102D0000232118461C3408F095FAD4E9030142182F
:102D1000D4E901010D4B121F08F08EF82060A67651
:102D20006676256200206562606120766065A06538
:102D30001C3C009023460190054A194604F14400CA
:102D400009F06CFE0020BDE8FC81000069C60008A7
:102D5000A5C8000810B5029C24F001044472C0E923
:102D600007120021C0E9093114304060006010BD35
:102D7000F0E905124A60D0E900121160406000607D
:102D8000704700002DE9F041144688460546FDF7DE
:102D9000B1FA07462849A86C08420DD1E86C0168D1
:102DA00001291CD001210160286C0B4622460669CE
:102DB00041462846B0473AE02846EE6C07F0FAFD57
:102DC000844200D30446F088A96C0219C1F38F2114
:102DD0008A420FD2316822460144404619E06FF022
:102DE00006043846FDF78AFA204609F001F800206B
:102DF000BDE8F0810A1A31680144404608F0DAF96A
:102E0000F188A86C0A19C0F38F20121A4044401AA6
:102E1000316808F0CFF9E86CC188214489B2C180DB
:102E2000AA6CC2F38F22914201D9891AC180384617
:102E3000FDF764FA2046DBE700FCFF030020704743
:102E4000C06E002109F065BA1146C06E002209F07B
:102E500060BA00207047002109F05BBA11460022D9
:102E600009F057BA00207047FEE74FF0FF30704777
:102E70000020704710B504460C49FDF7F9FD70B10C
:102E80000A492046891DFDF7F3FD50B10749204648
:102E90000D31FDF7EDFD30B14FF0FF3010BD0120D9
:102EA00010BD022010BD032010BD00003CE2000850
:102EB0004FF0FF30704770B514460D46022804D01D
:102EC000032802D001280AD007E007F059FB20B1FF
:102ED00023462A46002107F05BFD002070BD4FF01D
:102EE000FF3070BD08B58DF80000684608F082F824
:102EF00008BD00002DE9FE4F814600F1200817466D
:102F00000E46006939441D464FF0010A814202D93C
:102F10000520BDE8FE8FD8F80810404601B188476B
:102F2000F0070CD028463146012300906D1C761C1A
:102F30001A46484606F044FD040051D17F1E012187
:102F4000484609F05AFF04004AD1AD208DF804002C
:102F50000DF1040B31E000BFBAF1000F13D05C4655
:102F6000621C3146484606F0BCFB99F8350008B1B2
:102F7000052200E004222878A054A118687848703F
:102F80004FF0000A06E028788DF8050068780122E5
:102F90008DF80600002000900023D8F80440404639
:102FA00001A9921CA04704001AD148460AF0DDFE90
:102FB000040015D1AD1CB61CBF1E022FCCD20021BF
:102FC000484609F01AFF04000AD1012F0CD1012351
:102FD0001A4631464846009506F0F2FC040003D03C
:102FE0000021484609F009FFD8F80C10404601B10D
:102FF000884720468DE71FB504004FF00000009081
:103000000190029003900BD00E21684608F010FB4F
:103010000E226946204608F0CDF8002004B010BD0D
:103020004FF0FF30FAE7000010B51BA007F0E2FFF9
:103030001C4C21781CA007F0DDFF2078C00702D0CF
:103040001FA007F0D7FF2078800702D51FA007F048
:10305000D1FF2078400702D51FA007F0CBFF2078D2
:10306000000702D520A007F0C5FF2078C00602D5D2
:1030700020A007F0BFFF2078000607D509480F30D1
:103080000168BDE810401DA007F0B4BFBDE81040C6
:103090001EA007F0AFBF0000627573206661756CFB
:1030A000743A0A0029ED00E05343425F434653520D
:1030B0005F424653523A30782530325820000000A3
:1030C000494255534552522000000000505245439A
:1030D0004953455252200000494D505245434953EF
:1030E0004552522000000000554E53544B45525259
:1030F0002000000053544B45525220005343422DB0
:103100003E424641523A253038580A000A00000033
:1031100010B50446014696B000220F4800F0FCFAB4
:10312000002805DA21460DA007F064FF16B010BD97
:1031300054216846FDF749FC50226946064800F0D4
:103140004BFB20B1694609A007F054FFF0E70248A5
:1031500000F0BEFAEAE70000EC1B00204F70656E3D
:10316000202573206661696C65640A002573000080
:103170002DE9F0410E46804600240E4F15E000BFB9
:1031800008EB841505F11C0000F0D6FE60B16A6BF7
:10319000C1698A4206DB074900200839C860401E21
:1031A000BDE8F08147F82400641CB442E8D3002055
:1031B000F6E70000A801002010B588B00C4668466C
:1031C0000AF075F860780021082801D8029104E01F
:1031D00010280DD84FF4006002902D4862680068F6
:1031E000B2EB500F07D32B4B984204D8002021E0BC
:1031F000082008B010BDB2EB900F01D3082019E0F1
:10320000B2EBD00F01D3102014E0B2EB101F01D3AA
:1032100018200FE0B2EB501F01D320200AE0B2EBE0
:10322000901F01D3282005E0B2EBD01F01D330203E
:1032300000E038200690207882074FEAC07004D55D
:1032400008B1032003E0022001E010B10120059045
:1032500000E005912078400701D5049101E080202D
:1032600004904FF48270CDE900014FF400700A4CD5
:103270000390204609F0DAFF6946204609F0F9FF7D
:10328000204609F0C8FF204609F0C0FF0020B0E743
:103290000000002001512502003C0040F0B591B033
:1032A0000E460546694600F0ACFA002805DA2946C4
:1032B00031A007F09FFE11B0F0BDBDF80600042755
:1032C000B7EB103F01D1012400E0022469463046EB
:1032D00000F097FA002809DBBDF80600B7EB103FB5
:1032E00002D144F0040401E044F00804E00703D0F4
:1032F000200701D526A02FE0A0074FEA447014D57F
:1033000000280DDA2846FFF7DFF80146304600F0C6
:1033100067FC04001FD00146284600F0EBF816E0D9
:103320003146284600F0E6F8C5E7002817DA2846B7
:10333000FFF7CAF80146304600F052FC04000AD0FC
:10334000002106F05FFA2146284600F03FF82046AB
:1033500007F0A2FBAFE719A007F04CFEABE714F0B3
:103360000C0F03D10021304606F04CFA31462846B6
:1033700000F02CF89FE70000636F707920666169A8
:103380006C65642C206261642025730A00000000D3
:103390006370206661696C642C20637020646972BC
:1033A00020746F2066696C65206973206E6F7420CD
:1033B0007065726D6974746564210A006F7574209C
:1033C0006F66206D656D6F72790A00002DE9F0431C
:1033D0008846DBB0814601464FF4803251A800F0A8
:1033E0009BF9002806DA494632A007F003FE5BB0DD
:1033F000BDE8F0834FF482756E462C462946684638
:10340000FDF7E3FA2246694651A800F077F9002853
:1034100031DD2CA13446301DFDF72AFB0028ECD00D
:1034200029A1201DFDF724FB0028E6D0211D4846D8
:1034300000F0D6FB070014D02646211D404600F0C0
:10344000CFFB040011D0402141A8FDF7BEFA41A9ED
:10345000384600F0D6F990B1311D1CA007F0CAFD26
:10346000CBE720A007F0C6FD05E01EA007F0C2FDD7
:10347000384607F011FB51A800F02AF9B7E7BDF86C
:103480000A010421B1EB103F08D10021204606F0CB
:10349000B9F921463846FFF799FF03E0214638463F
:1034A00000F028F8384607F0F7FA204607F0F4FA5B
:1034B000A3E700006F70656E202573206661696C5C
:1034C00065640A002E2E00002E0000006F70656EED
:1034D0002066696C653A202573206661696C6564B5
:1034E0000A0000006F7574206F66206D656D6F7245
:1034F00079210A00F0B506464FF4805489B00F4692
:10350000204607F0D9FD05000CD000223146684660
:1035100000F002F900280ADA284607F0BDFA314621
:103520001AA013E01DA007F065FD09B0F0BD41220F
:1035300039461E4800F0F0F800280ADA284607F05D
:10354000ABFA684600F0C4F8394619A007F052FDFE
:10355000EBE7264632462946684600F03DF9041E50
:103560000ADD02462946114800F0D4F90146A0427E
:10357000F0D014A007F03EFD684600F0A9F80B4813
:1035800000F0A6F8284607F087FACEE75265616496
:10359000202573206661696C65640A006F7574206C
:1035A0006F66206D656D6F72790A0000EC1B00205C
:1035B0005772697465202573206661696C65640AB9
:1035C0000000000057726974652066696C652064AC
:1035D000617461206661696C65642C206572726E2D
:1035E0006F3D25640A0000002DE9F041244B88B0AE
:1035F00005AE0ECB86E80E0000252C4602A900F091
:10360000C1FB30B11FA007F0F5FC681E08B0BDE893
:10361000F081049902984FF48066A0FB01013246C4
:103620000023FCF757FF00BF4FF48062821A71F14C
:10363000000217DB32460023FCF74CFF07460A2541
:10364000A2FB050C884603FB05C3002102FB0131E8
:1036500032460023FCF73EFF0546641C38464146CF
:10366000022CE1DB029A0499CDE9001205A92A4651
:1036700051F82430014608A007F0BCFC0020C5E743
:10368000A4E300086466735F7374617466732066F4
:1036900061696C65642E0A006469736B20667265EB
:1036A000653A2025642E2564202573205B2025643F
:1036B00020626C6F636B2C202564206279746573C3
:1036C0002070657220626C6F636B205D0A000000E1
:1036D00070B504004FF000050DD02069416819B1A4
:1036E00020468847050005D4606807F0D5F900201A
:1036F0006060284670BD6FF00C0070BD10B143884B
:10370000022B02D06FF01C0070470369DB6903B124
:1037100018476FF02C0070472DE9F04190460400E7
:1037200025D0002000F05CFA070023D000F0FEF85E
:10373000050022D0E560A8680026806820616680C8
:10374000C4E90586C4E90765A8680079C0071AD0EE
:1037500067602069016841B32046884705002BD582
:10376000606807F099F928466660BDE8F0816FF05F
:103770001C00FAE76FF01200F7E7384607F08CF903
:103780006FF00800F1E73946686800F00AFB50B1B5
:103790003946686800F005FB08F029FE606038468D
:1037A00007F07AF9D5E70BA0F6E7606807F074F93F
:1037B0006FF02C006660D8E760695FEAC83140F0BE
:1037C0008070606104D50221618040F0007060610A
:1037D0000020CAE72F00000010B504000BD02069BC
:1037E000C3685BB120469847002803DA616941F05D
:1037F0008061616110BD6FF01C0010BD6FF02C0086
:1038000010BD70B50E460146002000F0E9F9050034
:1038100007D000F08BF8040006D028782F2809D0B4
:103820000AE04FF0FF3070BD284607F035F96FF021
:10383000080070BD687868B12946606800F0B1FA88
:1038400040B1A068036A8BB10079C00714D032463A
:10385000294619E0002044F2FF113060F1807061C8
:103860003062284607F018F9002070BD284607F09E
:1038700013F96FF02C0070BD2946606800F091FAD2
:103880000146A0683246036A204698470446284607
:1038900007F002F9204670BD70B50146002000F027
:1038A0009FF905000FD000F041F804000ED0284623
:1038B00000F07CFC68B1A068C2690AB30079C00757
:1038C0000AD0294614E06FF01C0070BD6FF00804A8
:1038D00018E06FF0160415E02946606800F061FA00
:1038E00050B12946606800F05CFA0146A068C269E0
:1038F00020469047044605E0A06805A1C269F7E7A5
:103900006FF02C04284607F0C7F8204670BD000071
:103910002F00000018B103691B691BB118476FF035
:103920001C0070476FF02C00704700002DE9F04735
:1039300000268146354600F06DF8144C04F120074E
:103940001DE06068D0B1A168C1B1FCF727FF8046D7
:10395000A84213D3424649466068FCF73EFF68B967
:10396000B8F1010F08D94846FCF718FF404503D9C4
:1039700019F808002F2801D1264645461034BC42CC
:10398000DFD300F027FA3046BDE8F087A81B0020FF
:1039900070B50D4C206818B10CA007F02BFB10E09F
:1039A0000025656020210E48A560FDF70EF80C4843
:1039B000E56000220BA12030256107F08DFC01207D
:1039C0002060002070BD000080010020646673202C
:1039D000616C726561647920696E69742E0A0000F9
:1039E000A81B002066736C6F636B000010B500228B
:1039F00004A1064807F070FCBDE81040044800F040
:103A00008DB900006C66736D74780000141D002081
:103A1000E4E3000810B54FF0FF342146024807F0F8
:103A2000BBFCC01DF9D010BDC81B00202DE9F04122
:103A300080464FF0FF3701B3084606F005FF060049
:103A40001BD0FFF7E7FF124D002400BF55F82400FC
:103A500020B100684146FDF70BF810B1641C022C40
:103A6000F4DB00F0B7F9022C0EDA55F824004169B6
:103A700031B13046BDE8F04108476FF0190001E070
:103A80006FF02C0008F0B4F93846BDE8F081000072
:103A9000840100202DE9FF4F89B09B469146002408
:103AA0006FF019084FF0FF3A20B106F0CDFE070085
:103AB00007D000E00027FFF7ADFF444D05F10806F1
:103AC00009E0404632E0286820B100684946FCF72A
:103AD000CFFF10B12D1DB542F5D300F07BF9B542F3
:103AE000EFD0286800B3C068F0B100200A9900F058
:103AF00077F85FEA00096FF01A0613D034A1FCF7DB
:103B0000B7FFC8B133A14846FCF7B2FFA0B14FF4EC
:103B1000803249466846FFF7FFFD002809DA48462B
:103B200006F0BAFF304601E06FF02C0008F060F9B3
:103B300046E06846FFF7CCFDFFF76CFF274E06F125
:103B400020080AE0B06828B170680A99FCF790FF75
:103B500038B101E004B9344610364645F2D31CB101
:103B600009E06FF01C0003E0464504D16FF022002D
:103B700008F03EF91FE0C4F8049028682760A060B0
:103B800000F028F9002627B10321206806F084FE02
:103B900058B928685946169AC3682046984700289D
:103BA00012DA17B1206806F037FEFFF733FF266000
:103BB0006660A660E66000F00DF9484606F06CFF0E
:103BC00050460DB0BDE8F08F0020FAE784010020D8
:103BD0002F0000002F64657600000000A81B002065
:103BE000F8B5060008780D461ED02F2822D03046A2
:103BF000FCF7D4FD04462846FCF7D0FD2044801C89
:103C000007F05AFA040022D03046FCF7C7FD0746F9
:103C10002846FCF7C3FD3918334633A22046891CD9
:103C2000009508F0B1FA0AE02F2803D030A007F081
:103C3000E1F90BE0084608F0DAFB040006D0204664
:103C400001462F2302782E2A02D027E00020F8BD5B
:103C5000427822B12F2A04D02E2A08D01EE0401C20
:103C60001CE0801C02782F2AECD1401CFAE78278F5
:103C700012B12F2A02D011E0801C03E0C01C027890
:103C80002F2A07D0491E2246A1421FD2104606F015
:103C900003FFDBE7401CF2E701F8012B10F8012BD2
:103CA00052B12F2AF8D101F8013B00BF10F8012BC7
:103CB0002F2AFBD0401EC5E7002001F80109A142D0
:103CC0000CD00A782F2A08D008E0491E8C42B9D2BD
:103CD00011F8012C2F2AB5D0F7E70870217809B91F
:103CE000237060702046F8BD25732F2573000000F7
:103CF00073797374656D20646F6573206E6F7420C3
:103D0000737570706F727420776F726B696E672055
:103D10006469726563746F72790A00002DE9F04777
:103D2000002681463546FFF775FE154C4FF0FF38EB
:103D300004F108070BE0206830B1D9F800100068E2
:103D4000FCF796FE40B101E005B92546241DBC42B2
:103D5000F1D33DB166B10DE06FF0170008F048F8FF
:103D600046463DB96FF0220008F042F8464601E0B1
:103D7000C5F8009000F02EF83046BDE8F08700004E
:103D80008401002010B50C46FFF7D0FD30B18168EA
:103D90008A691AB12146BDE8104010474FF0FF3044
:103DA00010BD70B50C460646FCF7F8FC05462046EB
:103DB000FCF7F4FC854201D1002070BD3046FCF7D1
:103DC000EDFC204401782F29F7D0A042F5D0401E09
:103DD00070BD0000014807F093BA0000C81B002026
:103DE00070B50F4D04460421284605F05BFD012106
:103DF000284605F057FD0421284605F05BFD2046C6
:103E000000F05AF800F00EF804460121284605F0AB
:103E100051FD0421284605F045FD204670BD0000F7
:103E2000001001402DE9F041114E00254FF480773C
:103E30002C463B4603224821304601F059FC6408D9
:103E40003946304601F09FFC012801D144F080043E
:103E50000121304605F02EFD0121304605F022FDFE
:103E60006D1CEDB2082DEAD32046BDE8F0810000BC
:103E70000010014070B50F4C0E4605460421204647
:103E800005F010FD0121204605F00CFD042120461F
:103E900005F010FD284600F00FF8304600F00CF851
:103EA0000121204605F006FD2046BDE870400421B2
:103EB00005F0F8BC001001402DE9F041134E054615
:103EC0004FF4807700243B4603221021304601F056
:103ED0000FFC0121304605F0E5FCE8073946304685
:103EE00002D005F0E7FC01E005F0DCFC01213046E2
:103EF00005F0E0FC0121304605F0D4FC641C6D089F
:103F0000E4B2082CE9D3BDE8F081000000100140C4
:103F100010B50C4607492246896901440548001F2F
:103F2000006808F0D1FF10B14FF0FF3010BD2046FF
:103F300010BD0000B401002010B5054C1822216806
:103F4000FCF74BFC08B1002010BD206810BD00003C
:103F50009C01002010B5074C207808B1002010BD4E
:103F60000448001D0068406A00B1804701202070AD
:103F7000F4E700009801002010B5FFF7EBFF074CB5
:103F8000002808DB00F064F8002804DD217800290F
:103F900003D1012100E00021217010BD9401002017
:103FA00070B500F03BF805001BD005F11C00FFF7D1
:103FB000C3FF060015D0542007F07EF804000FD090
:103FC000002025656064A86B316AB0FBF1F0A06445
:103FD000306A20640348E0642146281D07F04EF94A
:103FE000204670BDB0E300082DE9F04116460546B5
:103FF0000C468819A96B4FF0FF3788420BD828462A
:1040000001F042FB38B1696B036B0A193146BDE818
:10401000F041104618473846BDE8F08170B50646B5
:1040200000240A4D08E0686800EB84113046091D41
:10403000FCF71EFD28B1641CE8688442F3D300201D
:1040400070BD686800EB841070BD0000A001002006
:1040500070B5074C207840B901250648E56029462F
:104060006060FFF785F800B92570E06870BD00005A
:10407000A0010020CCEC00082DE9F0411E460546C9
:104080000C468819A96B90464FF0FF3788420DD82F
:10409000284601F0F9FA48B1696B32460B19846A77
:1040A0004146A446BDE8F041184660473846BDE8A1
:1040B000F0812DE9F0411E4605460C468819A96B92
:1040C00090464FF0FF3788420DD8284601F0DCFAC1
:1040D00048B1696B32460B19C46A4146A446BDE833
:1040E000F041184660473846BDE8F08170B5054696
:1040F0000C46066806E0686850F8240020B1806825
:1041000010B1641CA642F6DCA64216D1042E14D2CD
:10411000361D042E00DD0426B100686807F026FA7B
:1041200001001AD00022286803E000BF41F82020D7
:10413000401CB042FADBC5E900612868A0420CDDF2
:10414000686850F8240040B92421012006F0A5F940
:10415000696841F8240000B92C68204670BD000051
:1041600070B5104CC01E050002D42068A84201DCC6
:10417000002070BDFFF74EFC606850F8254024B168
:104180002088A0F57D41FD3903D0074807F0B8F835
:10419000EEE7A068401CA060034807F0B1F8204695
:1041A00070BD00008C010020C81B00202DE9F047E5
:1041B0000146214E0020FFF713FD04004FF0FF39A8
:1041C0000BD0FFF7B3FB070004D0786801782F29E4
:1041D00006D007E0204606F05FFC4846BDE8F087C1
:1041E000417839B1FCF7DAFA00EB0408FFF712FC6A
:1041F000002512E0A046F9E7706850F8250058B194
:10420000016949B142683AB1C068B84204D1414637
:104210001046FCF72DFC38B16D1C3068A842EBD875
:10422000064807F06DF8D5E7204606F035FC034850
:1042300007F066F80020D1E78C010020C81B0020A1
:1042400070B50D4DFFF7E6FB00212846FFF74EFF46
:1042500004462868A04202D16FF0030407E06868B2
:10426000012150F8240081604FF6FD510180034880
:1042700007F046F8E01C70BD8C010020C81B002030
:1042800070B50646FFF7C6FBB068401EB06013D19C
:104290000C4D002428680DE0696851F82410B142E3
:1042A00007D1304606F0F8FB6968002041F8240089
:1042B00002E0641CA042EFDCBDE87040024807F059
:1042C0001FB800008C010020C81B0020026812B13A
:1042D0008A4204D94A600160704728B1024650689A
:1042E0008842FAD900B148605160704730B5006823
:1042F0004A6801F10803884221D003E044688C42F7
:1043000003D020460028F9D119E0C0B1046800F1BB
:10431000080525448D4212D152B10D682B449342B9
:1043200006D111686319103119440160516804E025
:104330000A682244083202604968416030BD002AA0
:10434000FCD0086803449342F8D11368184408303D
:1043500008605068486030BD02688A420BD14A68E4
:1043600002600020486070475068884202D1486867
:10437000506070470246002AF6D170472DE9F05F81
:10438000040071D0206908B1FFF7F8FF20780026FB
:104390000122252326272825DFF894864FF0270CB5
:1043A0004FF0220A4FF02D0B4FF029094FF02E0E3F
:1043B0001C287DD2DFE800F07C0EA1A7A7A7A7B933
:1043C000CDDBF9F1F0EFEEEDECEBEAE97CE8E7E6C6
:1043D000E5E487E3A178480718D5D8F8040024213C
:1043E00000F8011BA168097A00F8011BA16809897E
:1043F000090A00F8011BA1688968090C00F8021B72
:10440000A1688968090E00F8011CBFE28807A0684E
:1044100038D5002857D0027AD21E0C2A53D2DFE8B2
:1044200002F00606241C1C24242424242424090726
:104430001DD4D8F8041001F8013B00BFC8F80410DF
:10444000027B01F8012B8289120A01F8012BC26854
:10445000120C01F8022BC06830E0090707D4D8F825
:10446000041001F8017BE9E7CEE2090705D5D8F889
:104470000410242201F8012BE0E7D8F8041001F819
:1044800001CBDBE70028C5D0427CD21E0C2AC5D266
:10449000DFE802F00606211A1A212121212121211B
:1044A000090706D5D8F80410242201F8012B18E0DA
:1044B000BBE2D8F8041001F8013B12E0000E01F84D
:1044C000010CC8F804109BE20907EBD4D8F80410DB
:1044D00001F8017B05E00907E4D4D8F8041001F8DD
:1044E00001CB1430C8F8041001F8010B020A01F8DE
:1044F000012B020C01F8022BE0E7D8F8040000F8C9
:1045000001AB217920E0D8F80400242100F8011B38
:10451000217900F8011BA188090A00F8011B6168D4
:10452000090C00F8021B61686CE76078012804D070
:10453000022807D003280AD062E2D8F8040000F865
:10454000012B23E202216DE200F8011B1EE2032190
:1045500068E26078012804D0022804D0032804D03F
:104560004EE204215EE205215CE206215AE2607817
:10457000012814D0022814D0032814D040E22AE2E3
:1045800034E2B6E157E101E1BCE08EE07DE06EE0AF
:104590005FE050E041E032E023E014E005E00D216F
:1045A00040E20E213EE20F213CE26078012804D077
:1045B000022804D0032804D022E2072132E2082195
:1045C00030E209212EE26078012804D0022804D0CC
:1045D000032804D014E20A2124E20B2122E20C2158
:1045E00020E26078012804D0022804D0032804D0F7
:1045F00006E2102116E2112114E2122112E2607883
:10460000012804D0022804D0032804D0F8E11321A3
:1046100008E2142106E2152104E26078012804D0A2
:10462000022804D0032804D0EAE11621FAE1172178
:10463000F8E11821F6E16078012804D0022804D0BE
:10464000032804D0DCE11921ECE11A21EAE11B2165
:10465000E8E16078012804D0022804D0032804D0BF
:10466000CEE11C21DEE11D21DCE11E21DAE16078D2
:10467000012804D0022804D0032804D0C0E11F215F
:10468000D0E12021CEE12121CCE1206900210028C8
:1046900092D0C06801E0C068491C0028FBD1D8F85E
:1046A00004002C2200F8012B4EE7206910B101789C
:1046B000012903D00178192915D0A1E1407815E02E
:1046C000032818D05FF0030000F0E8F998E100BF7C
:1046D000D8F8040000F8015B9BE100BFD8F80400A3
:1046E00000F8019B9AE1407800F00F000128EFD01C
:1046F0000228F3D0E4E7D8F804002A2100F8011BCF
:104700002F2121E7206900288ED0017801298BD143
:1047100081686078012804D0022812D0032891D142
:1047200020E0D8F804001431037041700B0A837044
:104730000B0CC370090E017180F805A08271C27163
:1047400043E0D8F8040014310B0A077041708370FD
:104750000B0CC370090E0171232141718271C67166
:10476000022147E0D8F8040014310B0A80F800C099
:10477000417083700B0CC370090E017124214171CB
:104780008271C6710672467203214DE020690028CD
:1047900078D00178012975D181686078012804D02A
:1047A000022817D003286DD12BE0D8F8040014316B
:1047B000037041700B0A83700B0CC370090E0171FA
:1047C00080F805A082710421C17105722F21417208
:1047D0000A30DBE0D8F8040014310B0A077041708E
:1047E00083700B0CC370090E01712321417182711A
:1047F000C6710521017280F809902F2181720B305A
:10480000C4E0D8F8040014310B0A80F800C04170ED
:1048100083700B0CC370090E0171242141718271E8
:10482000C67106724672062181722A21C1722F2139
:1048300001730D30AAE0206920B30178012921D14C
:1048400081686078012804D002281CD0032819D17F
:1048500033E0D8F804001431242606700F0A4170A2
:1048600087700E0CC6704FEA116C80F804C043715B
:104870008171C771067280F809C080F80AA0C272FF
:1048800002735DE076E0D8F804001431242303704D
:104890000D0A417085700B0CC3704FEA116C80F8E3
:1048A00004C047718171C571037280F809C023216A
:1048B0008172C2720673022162E0D8F804001431DA
:1048C0004FF0240980F800900D0A41700B0C8570A0
:1048D000C3700F0E077180F805C08171C571037236
:1048E000477280F80A90C27206734673867303217A
:1048F0006AE02069F0B3017801293BD181686078D2
:10490000012804D0022820D0032879D141E0D8F82A
:1049100004001431242606700F0A417087700E0CB3
:10492000C6704FEA116C80F804C043718171C77181
:10493000067280F809C080F80AA0C27204210173CF
:1049400045732B2181730F3020E0D8F80400143117
:10495000242303700D0A417085700B0CC3704FEA5D
:10496000116C80F804C047718171C571037280F8C1
:1049700009C000E044E023218172C2720673052160
:10498000417380F80E902B21C1731030C8F80400D9
:1049900036E0D8F8040014314FF0240980F8009074
:1049A0000D0A41700B0C8570C3700F0E077180F8F3
:1049B00005C08171C5710372477280F80A90C27296
:1049C0000673467386730621C1732A2101742B2155
:1049D00041741230DAE7D8F8040000F8016B00F8EF
:1049E000016B00F8026B00F8016CCFE7A0780007BC
:1049F00006D4607801280AD002280DD0032810D0F0
:104A0000E06808B1FFF7BAFC0020BDE8F09FD8F8D5
:104A1000040000F801BBB9E7D8F8040000F801EB86
:104A2000B4E72F21D8F804008EE508204CE60000FA
:104A30000C0100202DE9F0410446002100F043FD67
:104A400080210D48FBF79FFF0C480D4D00260660A6
:104A50002860094868605CB12B272046E468C6607E
:104A6000FFF78CFC24B1686800F8017B6860F4E70C
:104A70000020BDE8F0810000B00A0020B00900204D
:104A80000C0100200148007870470000140100204C
:104A90000149002008707047140100200149087086
:104AA0000020704714010020014951F82000704790
:104AB0001801002010B500F043F900F0B1F8FFF73D
:104AC000E7FF002010BD00002DE9F0412A4FC01C77
:104AD00020F0030505F108063C6800E064681CB19D
:104AE0002068B042FAD926E0DFF890807C6819E0AF
:104AF0000021434604F1080201EB410003EBC00032
:104B000090F811C0BCF1000F02D04069904202D071
:104B1000491C0829F0DB20466468082902D10830C6
:104B200000F02EF8002CE3D13C6800E0646804B388
:104B30002068B042FAD321686019491B083940F84F
:104B4000081F256061684160606021460A48FFF7E0
:104B500003FC0020606008482146001DFFF7B6FBFB
:104B600004F1080029460446FBF72FFF2046BDE864
:104B7000F0810020FBE7000054010020F008002035
:104B800010B50838044601460748FFF7E5FB06481C
:104B90002146001FFFF79AFB21460348BDE810405D
:104BA000001FFFF7A3BB00005801002010B58021B3
:104BB0000648FBF70AFF06490448782208600260AD
:104BC0000022426010464A6010BD000030070020FD
:104BD0005401002010B500F0B3F800F021F800F007
:104BE000E1FCFFF755FFFFF7E1FF002010BD0000DB
:104BF0000A4A002101EB810312F8233013B1491C4A
:104C00001029F7DB102906D001EB810102F8210001
:104C100002EB81007047002070470000B0070020C1
:104C200010B54FF4A0710248FBF7CFFE002010BD75
:104C3000B007002010B504460220FFF7D9FF08B1E5
:104C4000047110BD0620FFF729FF002010BD70B5CC
:104C50000646002500F0E0FC040001D001260CE02F
:104C6000304600F01DFA040001D0022605E030466F
:104C700000F080F904000CD004260120FFF7B8FFF3
:104C800005000AD0012E0DD0022E0BD0042E0AD121
:104C900008E00D20FFF702FF06E00620FFF7FEFE0A
:104CA000002070BDAC60AE70284670BD10B50446E3
:104CB0000320FFF79DFF08B1446010BD0620FFF7F9
:104CC000EDFE002010BD10B504460420FFF790FF54
:104CD00008B1446010BD0620FFF7E0FE002010BDC3
:104CE00010B504460620FFF783FF08B1446010BDED
:104CF0000620FFF7D3FE002010BD70B50546052045
:104D0000FFF776FF040016D02846FBF747FD401C4E
:104D1000FFF7DAFE60602846FBF740FD02462946B1
:104D20006068FBF779FE2846FBF738FD61680022D2
:104D30000A54204670BD0620FFF7B0FE002070BD6B
:104D400010B59C21FBF741FE002010BD70B5054653
:104D500002C0002400F0A2FB281D00F0A8FB0126E1
:104D60003CE01F2816D0142820D015281ED0162865
:104D70001CD017281AD0182818D0192816D06E71F0
:104D8000D5F8980070B1284604F0F9FFE06050B300
:104D900004461CE06E71D5F8980018B1284604F05E
:104DA000EEFF0BE0284604F0EAFF0DE06E71D5F847
:104DB00098000028284605D005F0AFF9E0600028EB
:104DC000E6D104E005F0A9F90446C5F89800D5F845
:104DD0009800002806D0281D00F069FB212801D08A
:104DE0002028BED170BD281D00F061FBEFE7000058
:104DF00070B5064624480C46006890F82100C007AC
:104E000002D022A006F0F6F821463046FFF79EFFBA
:104E1000FFF738FE60B1FFF735FEFFF745FE0146AC
:104E20001BA006F0E7F800BFFFF72CFE28B125E035
:104E3000D6F89800FFF7FEFDF6E700F009FC00F059
:104E400093F8C0B221385D280ED200F08DF80546E7
:104E500000F08AF8044600F087F8C1B22B462246DB
:104E60000CA006F0C7F809E000F07EF8044600F058
:104E70007BF8014622460CA006F0BCF83046BDE89F
:104E80007040FFF717BE00006C0100200A00000010
:104E900025730A0009272563272C2025642C203040
:104EA00078253038780A00000925642C20307825D0
:104EB0003038780A00000000034810B5006806F09A
:104EC00065FD002010BD00006C01002070B5044697
:104ED00005F0BAFC05002CD0194C2068D0F8A802C7
:104EE000A8422CD040F24311284605F0D5FC0028FA
:104EF00025D12068D0F8A80238B105F08DFC2068D3
:104F00000021D0F8A80205F040FD2068502100F5EE
:104F10001570FBF75AFD2068002180F8A41280F874
:104F2000A512C0F8A8522846BDE87040054905F012
:104F30002CBD2146BDE8704003A006F05BB870BDF3
:104F40006C010020B94E000866696E73683A2063F0
:104F5000616E206E6F742066696E64206465766988
:104F600063653A2025730A00014800687047000015
:104F7000B009002070B505461048114E046805E0E0
:104F800029462068FBF774FD30B10C343068844248
:104F9000F6D30C4804680BE0204670BD2846FBF7AA
:104FA000FDFB024629466068FBF717FC20B1246828
:104FB000002CF3D1002070BD201D70BD70010020B9
:104FC0007401002060010020024A10600248016064
:104FD0007047000070010020740100207FB51A495D
:104FE0001A48FFF7F1FF1A491A4800F04FF84FF43A
:104FF0002B75284606F060F8174C2060B0B12946A2
:10500000FBF7E3FC00231A4614A1206806F0ACFC71
:10501000102214480A2311028DE80F000023124ABF
:1050200012A1783807F0A4FB38B10AE011A005F00E
:10503000E1FF4FF0FF3004B070BD0A48783807F048
:10504000F9FB0020F7E70000CCEC0008F4EB0008C7
:105050003CED00082CED00086C01002073687278AC
:1050600000000000A80B0020F5500008747368656C
:105070006C6C00006E6F206D656D6F727920666FCD
:1050800072207368656C6C0A00000000024A1060B0
:105090000248016070470000780100207C01002078
:1050A00070B505461048114E046805E02946206891
:1050B000FBF7DEFC30B1103430688442F6D30C4884
:1050C00004680BE0204670BD2846FBF767FB0246EC
:1050D00029466068FBF781FB20B12468002CF3D1DE
:1050E000002070BD201D70BD780100207C010020D3
:1050F0005C0100201CB5DA4E0127306880F8217071
:1051000000F5DC70FFF766FD3068D0F8A80270B9D2
:1051100005F036FA3168C1F8A802D24905F035FC2D
:10512000306840F24311D0F8A80205F0B5FBCEA0DC
:1051300005F060FF4FF0FF3A4FF00D094FF0000807
:1051400051463446306806F043FC0028F8D17CE133
:105150009DF8001020681B2906D090F82020012A15
:1051600005D0022A0CD015E080F820706DE15B2993
:1051700002D080F820800DE0022180F8201064E148
:1051800080F8208041290ED0422913D0442935D0FF
:1051900043293FD00D294ED009297CD07F297BD0CF
:1051A0000829FCD057E0418C0029D0D0491E89B293
:1051B00041840BE0818C428C4B1E9A4202DA521CD5
:1051C000428402E00029C2D04384418C502201EB8A
:1051D000810100EB011100F515702631FBF754FB3E
:1051E000206800F51570FBF7D9FA0146206880F8B1
:1051F000A41280F8A51207F085FF26E190F8A50219
:105200000028A4D09AA005F0F5FE206890F8A51219
:10521000491E18E190F8A51290F8A422914296D266
:1052200000F51570095C93A005F0E4FE206890F885
:10523000A512491C07E1D0F8A802012301AA002108
:1052400005F078FB01283DD19DF8040028B38DF8C6
:1052500000000D2838D09DF800200A2A34D020689C
:1052600090F8A412502902D3414680F8A48290F805
:10527000A532C9B28B4273D2CA1A00F5157100F279
:1052800055201944184405F0BBFF20689DF8001014
:1052900090F8A52202E02CE04FE013E000F5157035
:1052A0001154206890F82110C90707D090F8A51272
:1052B00000F51570014470A005F09CFE206890F880
:1052C000A5529AE08DF80090206807F02FFF206823
:1052D0003B2190F8A42200F515701154206890F835
:1052E000A412E1B300F5157100F5DC70FFF780FD45
:1052F00070E0002503E05EA005F07CFE6D1C2068D8
:1053000090F8A502A842F6DC25685CA005F51575A5
:1053100005F070FE284604F04FF82A4658A15AA01E
:1053200005F068FE206800F51570FBF737FA216874
:1053300081F8A40281F8A50287E090F8A51200295F
:1053400040D090F8A422491E521ED2B2C9B280F8B1
:10535000A42280F8A5128A422AD9521A01E032E02A
:1053600051E000F2552300F515700B44084419462E
:1053700005F046FF206890F8A42200F5157002F8A9
:105380000080206890F8A51200F51570014440A037
:1053900005F030FE206890F8A55203E034A005F037
:1053A00029FE6D1C206890F8A402A8424DDBF5E7A9
:1053B00039A005F01FFE206890F8A42200F51570B2
:1053C00002F8008041E090F82100C00702D02BA035
:1053D00005F010FE24A005F00DFE2068502100F518
:1053E0001570FBF7F2FA206880F8A48280F8A58295
:1053F000A6E61FA005F0FEFD6D1C206890F8A40233
:10540000A842F6DC0CE000F515700A54206890F80C
:105410002100C00704D09DF8001016A005F0EAFD99
:105420008DF800802068414690F8A422521CD2B228
:1054300080F8A42290F8A5325B1C80F8A532502A8F
:1054400003D380F8A41280F8A512206801236A46CD
:10545000D0F8A802002105F06DFA0128C8D177E63E
:105460006C010020B94E000866696E73683E3E000C
:105470000800000025630000257300000A000000FA
:1054800066696E73683E3E00257325730000000058
:1054900008257320200800000820080070B50D467C
:1054A00004469421FBF791FAC4F8905070BD10B5F2
:1054B0000446407810B10020607002E0204608F0F9
:1054C000E7F9207A10BD70B504000D4632D020787F
:1054D000132808D0152806D0162804D01A2802D080
:1054E000192803D006E00821206904E015B1002145
:1054F000206900E02069FFF7E6FF0021E068FFF780
:10550000E2FFA078042801D02843A070206910B1E0
:10551000407860700EE020780122032101280BD032
:10552000022834D0032836D0042834D0052832D0BD
:10553000062830D0002070BDA0784FF00003C607C9
:105540004FF002050FD0A0680028F3D0407C0F2850
:1055500023D2DFE800F0221A201C1C201E1E20206F
:105560002020202020008007E4D5A0680028E1D07A
:10557000007A0F2811D2DFE800F010080E0A0A0E98
:105580000C0C0E0E0E0E0E0E0E006370D2E7627043
:10559000D0E76570CEE76170CCE70320FFF77EFAB5
:1055A000C8E7000010B5C0210248FBF70EFA002042
:1055B00010BD0000F00800202DE9F0474FF0FF3843
:1055C000144E894682464446002500BF05EB45003F
:1055D00006EBC000074610225146FBF7FEF8B8B1B3
:1055E000787C10B9601C00D12C466D1C082DEDDBB9
:1055F000601C0DD004EB440006EBC00005461022F1
:105600005146FBF709FA85F811902046BDE8F0876E
:105610004046FBE7F008002070B50C4D064600241C
:1056200004EB440005EBC00010223146FBF7D5F82F
:1056300010B1641C082CF3DB082C04D004EB4400EC
:1056400005EBC00070BD002070BD0000F008002018
:1056500070B50A480A4C00F580750A4EC4E9010588
:1056600006E000BF10F8011BA06056F8210080473B
:10567000A068411B8029F5D370BD0000B00900204F
:1056800060010020A0E2000804494968401A03496B
:105690008011083151F8200070470000A00100205F
:1056A0008A68002A01DCFBF741BC521E8A604A6806
:1056B000C0B2531C4B601070704705F0EDB900008C
:1056C0001FB5002000900190029003906846FDF7FE
:1056D00092FC694601A005F08DFC1FBD74696D65E3
:1056E0003A25730A0000000041617047016170476C
:1056F0002DE9F04301F00F04CD0600D51443002539
:105700004FF00F095FF0010202FA05F61E4014D0B7
:1057100007684FEA850C09FA0CF827EA080704FA2B
:105720000CF848EA0708282902D0482902D002E0EC
:10573000466100E00661C0F800806D1CADB2082D26
:10574000E2D3082502FA05F61E4016D047684FEA54
:105750008508A8F1200809FA08FC27EA0C0704FAD2
:1057600008FC4CEA070C282902D0482902D002E0A4
:10577000466100E00661C0F804C06D1CADB2102D9A
:10578000E0D3BDE8F0838068084000D00120704776
:10579000F0B5144C002801DAE36900E06368420DBB
:1057A000120185B2C0F301579540C0F30346032FA1
:1057B00005D0C2020AD50322B240934307E023F08A
:1057C0007062636823F07063636002E0AB4343F090
:1057D000706201B12A43002801DAE261F0BD626023
:1057E000F0BD00000000014010B5124C2068800799
:1057F00002D511A005F0FEFB2068400011D50D4830
:10580000C01E007808B1FDF70FFC0A48001F0078A1
:1058100008B103F08BFF0748801E008808B108F02C
:1058200087F92068002804DABDE8104008A005F0D8
:10583000E1BB10BD2CED00E06661696C656420760B
:105840006563746F722066657463680A0000000007
:105850006465627567206576656E740A00000000F5
:10586000FEB5044607F0FCFB002869D1206904F16D
:10587000200528B1A08A18B1A06908B1207FC8BB53
:105880009F218DF80810032100916E68284601AB16
:10589000012202A9B047002852D19DF804102173BB
:1058A0009DF8051061739DF80630A373424A267B6C
:1058B00000EB400702EBC70191F804C0B4451AD1D0
:1058C00091F805C094F80DE0F44514D191F806C0A4
:1058D0009C4510D100EB400052F83000A06002EB74
:1058E000C700806820618889A0820869A061087D5E
:1058F000207703E00AE0401C1228D9D32069F0B1D8
:10590000A08AE0B1A069D0B1207FC0B12A4A0020AE
:10591000217B803A02EBC0031B798B4202D0401CF2
:105920001028F7D3662000268DF8040000966F68D3
:105930003346012201A92846B84710B113E00120DF
:10594000FEBD204608F011FA99208DF8050000965A
:1059500000236F68284601220DF10501B84710B9F0
:10596000204608F002FA0028EAD1217D490706D531
:1059700000220121204607F0A0FB0028E0D1216988
:10598000B1F1807F15D901273946204607F035FA55
:105990000028D5D1B7208DF8040000960023666A50
:1059A000012201A92846B0470028C9D184F83570E2
:1059B000FEBD84F83560FEBD84E0000810B508A087
:1059C00006F052FA0949086030B1091D82690A627D
:1059D0000069C861002010BD4FF0FF3010BD00000D
:1059E0006E6F72666C61736830000000B001002059
:1059F00038B505F0BDF9FEF7BFFA0FA0FEF7D0FAF3
:105A0000002818D0FDF7C4FFFDF7F0FF002423465F
:105A10000CA20DA108A00094FEF73CF800280AD0C3
:105A200005A108A0FEF702F8002306A206A102A025
:105A30000094FEF72FF838BD66696C65737973744E
:105A4000656D00006C6673002F0000000844421E64
:105A5000B2FBF1F301FB1321401A401E7047000016
:105A60002DE9F0410E4604460125A16D19E0421CC6
:105A7000E265226E521E2266626E430952F82320AE
:105A800000F01F0305FA03F31A420AD1616D0844BE
:105A9000A16E096AB0FBF1F201FB12003060A16D4A
:105AA00029E0E06D8842E2D1206E98B3626D0A442D
:105AB000A16E0B6AB2FBF3F703FB17226265C96A9A
:105AC000CA000146104602F0FFFFA0650020E06515
:105AD000A06EC16A606EFAF778FF2246134910463D
