:020000040800F2
:10000000C8610020A90200081B1300088D03000826
:1000100019130008151300080D2000080000000047
:100020000000000000000000000000006D1F00083C
:100030001713000800000000170300086F1F0008D6
:10004000C3020008C3020008C3020008C30200087C
:10005000C3020008C3020008C3020008C30200086C
:10006000C3020008C3020008C3020008C30200085C
:10007000C3020008C3020008C3020008C30200084C
:10008000C3020008C3020008C3020008C30200083C
:10009000C3020008C3020008C3020008C30200082C
:1000A000C3020008C3020008C3020008C30200081C
:1000B000C3020008C3020008C3020008C30200080C
:1000C000C3020008C3020008C3020008C3020008FC
:1000D000C3020008F51F0008C3020008C30200089D
:1000E000C3020008C3020008C3020008C3020008DC
:1000F000C3020008C3020008C3020008C3020008CC
:10010000C3020008C3020008C3020008C3020008BB
:10011000C3020008C3020008C3020008C3020008AB
:10012000C3020008C3020008C3020008C30200089B
:10013000C3020008C3020008C3020008C30200088B
:10014000C3020008C3020008C3020008C30200087B
:1001500000000000C3020008C3020008C302000838
:10016000C3020008C30200080000000000000000F5
:100170000000000000000000C3020008C3020008E5
:10018000C302000800000000C3020008C302000808
:10019000000000000000000000000000000000005F
:1001A000C3020008C302000800F002F800F06CF877
:1001B0000AA090E8000C82448344AAF10107DA45C2
:1001C00001D100F061F8AFF2090EBAE80F0013F0A8
:1001D000010F18BFFB1A43F001031847987F000076
:1001E000B87F00000A444FF0000C10F8013B13F0F8
:1001F000070408BF10F8014B1D1108BF10F8015B80
:10020000641E05D010F8016B641E01F8016BF9D172
:1002100013F0080F1EBF10F8014BAD1C0C1B09D1C9
:100220006D1E58BF01F801CBFAD505E014F8016B3B
:1002300001F8016B6D1EF9D59142D6D370470000CD
:100240000023002400250026103A28BF78C1FBD8DF
:10025000520728BF30C148BF0B607047782900F0B3
:10026000F180002070471FB500F03CFD0400002025
:10027000002107F06DFB401C606000F071FC1FBDA9
:1002800010B500F0D6FC10BD00F006FD1146FFF7DA
:10029000EAFF04F067F900F0E1FE03B4FFF7F0FFB6
:1002A00003BC02F025FC00000948804709480047CC
:1002B000FEE7FEE7FEE7FEE7FEE7FEE7FEE7FEE716
:1002C000FEE7FEE704480549054A064B7047000073
:1002D000811F0008A9010008C8210020C861002072
:1002E000C8410020C8410020EFF3108072B670476B
:1002F00080F310887047314A1368012B04D04FF007
:10030000010313602E4A10602E4A11602E484FF0F0
:10031000805101607047EFF3108272B62748016880
:1003200091B14FF0000101602548016829B1EFF358
:10033000098121E9F00F0068016022490968096814
:10034000B1E8F00F81F3098882F310884EF0040EB3
:1003500070471C4908601A494FF0000008601749AF
:100360004FF00100086019484FF47F01D0F80020D9
:1003700041EA0201016014484FF0805101601448C5
:100380000068006880F3088862B670471EF0040FAA
:1003900014BFEFF30880EFF3098020E9F00F40F875
:1003A00004ED14BF80F3088880F3098800B505F0D8
:1003B000E7F95DF804EB4EF0040E7047F000002002
:1003C000E8000020EC00002004ED00E020ED00E05B
:1003D00008ED00E070477047704700000FB4044913
:1003E00010B503AA029800F0F9FA10BC5DF814FBEE
:1003F000BC20002070B5044685690068C10601D59F
:10040000302600E02026C00707D070BDD4E90121C6
:1004100030469047206A401C20626D1EF6D570BDA4
:1004200070B5044685690078C00707D170BDD4E96E
:10043000012120209047206A401C20626D1EF6D5C5
:1004400070BD000070B504460D4621461068AFF33C
:1004500000802188090502D50F4A7A4402E00E4A3D
:100460007A440E32002104F1240305E000F00F0667
:100470000009965D5E54491C0028F7D120780023BE
:10048000000704D5702D02D009B102231132204695
:10049000BDE8704000F048BAD67700002DE9F05F63
:1004A000894604464FF0000ADFF824B1FB44C0F847
:1004B00020A02046E168884700287DD0252806D066
:1004C000D4E901219047206A401C2062F1E7002511
:1004D0005F462046E16888472028064607DB312E24
:1004E00005D2B81910F8200C08B10543F1E7A807A8
:1004F00001D525F00405C4F81CA00027C4F818A0F5
:100500002A2E09D0304601F09FFE38B304EB87084D
:10051000303EC8F8186019E059F8041B204604EB77
:1005200087029161E1688847012F064618D1E0698A
:10053000002820DA25F020051DE0D8F8180000EB8F
:10054000800006EB40003038C8F818002046E1680B
:100550008847064601F078FE0028EED1012F0AD028
:100560002E2E08D12046E16888477F1C0646022FC0
:1005700045F02005C4DBA069002803DA404245F0BD
:100580000105A061E80701D025F01005A6B1A6F18C
:100590004100192802D8203645F400654A46314604
:1005A000204625604D46FFF759FE60B1012807D06F
:1005B000ED1D25F0070000E007E000F1080978E7ED
:1005C00005F1040975E730467AE7206ABDE8F09F37
:1005D000AC77000070B5064600F0A2F90468054645
:1005E00030460A22002100F00BFA2C6070BD10B5D5
:1005F000431C02E010F8011B71B18107FAD14FF0E2
:10060000013202C88C1A8C4314EAC211F9D0C01A04
:100610000A0603D0C01E10BDC01A10BD0A0401D0C6
:10062000801E10BD0902FCD0401E10BD40EA01032F
:1006300070B59B072ED14FF00136042A2AD308C883
:1006400010C99D1B9D43121F15EAC61517D0D8B2BD
:10065000E1B2401A50EA056110D198B2A1B2401A35
:1006600050EA05410AD123F07F4024F07F41401A2F
:1006700050EA052102D1180EA0EB146070BDA34210
:10068000DBD018BA21BA884201D9012070BD4FF0E1
:10069000FF3070BD0AB9002070BD10F8013B11F8A1
:1006A000014B63B1A3420AD1521E08D010F8013B9E
:1006B00011F8014B1BB1A34201D1521EEDD1181B01
:1006C00070BD032A40F2308010F0030C00F015805A
:1006D00011F8013BBCF1020F624498BF11F801CB45
:1006E00000F8013B38BF11F8013BA2F1040298BFAA
:1006F00000F801CB38BF00F8013B11F0030300F014
:100700002580083AC0F0088051F8043B083A51F8B7
:1007100004CBA0E80810F5E7121D5CBF51F8043BBC
:1007200040F8043BAFF30080D20724BF11F8013B2F
:1007300011F801CB48BF11F8012B24BF00F8013B91
:1007400000F801CB48BF00F8012B704710B5203AE4
:10075000C0F00B80B1E81850203AA0E81850B1E87A
:100760001850A0E81850BFF4F5AF5FEA027C24BF30
:10077000B1E81850A0E8185044BF18C918C0BDE827
:1007800010405FEA827C24BF51F8043B40F8043BF0
:1007900008BF7047D20728BF31F8023B48BF11F8A5
:1007A000012B28BF20F8023B48BF00F8012B7047FF
:1007B0004FF000020429C0F0128010F0030C00F08A
:1007C0001B80CCF1040CBCF1020F18BF00F8012B08
:1007D000A8BF20F8022BA1EB0C0100F00DB85FEAD6
:1007E000C17C24BF00F8012B00F8012B48BF00F8A2
:1007F000012B70474FF0000200B513469446964611
:10080000203922BFA0E80C50A0E80C50B1F1200123
:10081000BFF4F7AF090728BFA0E80C5048BF0CC0D1
:100820005DF804EB890028BF40F8042B08BF70472F
:1008300048BF20F8022B11F0804F18BF00F8012BA1
:10084000704710B5044610F0030F08BF11F0030FF6
:1008500040F015804FF0013E121FC0F20E8051F89B
:10086000043BA3EB0E0C2CEA030C1CEACE1C08BFC5
:1008700040F8043BF0D0A1F1040102F10402521E41
:1008800008DB11F8013B002B00F8013BF7D11146C2
:10089000FFF78EFF204610BD4FF0013C50F8042BAF
:1008A00051F8043B9A4221D1A2EB0C03934313EA83
:1008B000CC1317D150F8042B51F8043B9A4215D1B0
:1008C000A2EB0C03934313EACC130BD150F8042B87
:1008D00051F8043B9A4209D1A2EB0C03934313EA6B
:1008E000CC13DBD04FF00000704700BFD01A01BA24
:1008F000B1FA81F101F0180122FA01F0CB40C1F107
:100900002001DBB2C0B2C01A2CFA01F3D11A914314
:1009100011EAC311E6D17047704770477047000075
:1009200000487047642100202DE9F0470D469946A4
:100930009246044600F124080168880604D5E0695F
:1009400021F01001216000E00120A84201DD471BD9
:1009500000E00027A1697A1902EB0900081AA061DA
:100960002078C00602D42046FFF744FD002608E0A8
:10097000D4E901211AF806009047206A401C761C31
:1009800020624E45F4DB2078C0060AD52046FFF7EA
:1009900031FD06E0D4E9012130209047206A401C57
:1009A0002062381EA7F10107F4DC07E0D4E9012139
:1009B00018F805009047206A401C2062281EA5F107
:1009C0000105F3DC2046FFF72BFD2078000602D559
:1009D0000220BDE8F0870120FBE70000074B70B55F
:1009E0000D467B4400F055F80446284600F0B3F865
:1009F00010B14FF0FF3070BD204670BD7F36000053
:100A00002DE9F04791460F4680460446002614F82B
:100A1000015B2DB100F030F80068405DC007F6D1F1
:100A20002B2D02D02D2D18D0641E4A463946204663
:100A300000F042F827B13968A14201D1C7F800801F
:100A40004FF0020471050BD54042002803DDFFF78B
:100A500067FF0460A007BDE8F08746F48066E4E71E
:100A60000028F8DAFFF75CFF04606FF00040F2E75F
:100A7000004870476421002010B500F033F9001DD4
:100A800010BD00BFCD6E000001694A1C02610878EC
:100A9000704700B58FB0CDE90131002105910549BE
:100AA0007944CDE9031011466846FFF7F7FC0FB013
:100AB00000BD0000E5FFFFFF2DE9F05F824615460F
:100AC0008B4600270AF10104B9460078302801D08E
:100AD0009DB113E014F8010B0127782803D05828A2
:100AE00001D045B10AE00DB1102D07D1002714F84F
:100AF000010B102502E0082500E00A250026B0467B
:100B00000EE005FB080005FB06F101271FFA80F83F
:100B100001EB1046B6F5803F00D3B94614F8010B3F
:100B2000294600F0E3F80028EBDABBF1000F05D00E
:100B30000FB1641E00E05446CBF80040B9F1000F3D
:100B400006D0FFF7EDFE02210160C81EBDE8F09F50
:100B500048EA0640FAE7007B00F08000704700009A
:100B600010B542485421FFF745FE41485421FFF794
:100B700041FE40485421FFF73DFE3F493B483C4A77
:100B80003F4B08603D490A603A491960531C0365B0
:100B9000481C1065012008653B48344A39A1784457
:100BA00000F0C0F920B9384878440A3800F05CFAFF
:100BB00037482F4A35A1784400F0B4F920B93448B9
:100BC00078440A3800F050FA32482A4A2FA1784473
:100BD00000F0A8F920B92F4878440A3800F044FA08
:100BE00040232248DC000021224600F078F920B1A1
:100BF00025487844543800F037FA1D4822464023EF
:100C0000002100F06CF920B121487844543800F0FC
:100C10002BFA184822461023002100F060F9002822
:100C200006D01C487844BDE81040563800F01CBA85
:100C300010BD104870B5006D20F001040B4800F0A5
:100C4000E7F90B4800F0E4F90A4800F0E1F909E09F
:100C5000206D20F00105204600F0DAF9204603F06F
:100C60000EFA2C46002CF3D170BD00006820002045
:100C7000BC20002010210020F0010020F401002001
:100C8000F8010020720000002A6F000077000000C9
:100C9000186F0000076F00007546FFF7E9FEAE46CB
:100CA00005006946534620F00700854618B020B578
:100CB000FFF708FBBDE820404FF000064FF00007AB
:100CC0004FF000084FF0000B21F00701AC46ACE8F4
:100CD000C009ACE8C009ACE8C009ACE8C0098D4661
:100CE0007047000000487047842100203A2800D255
:100CF000303820F02002412A01D3A2F13700884287
:100D000001D34FF0FF3070472DE9F04705460C4600
:100D1000C86820F4201040F48000C860800602D526
:100D2000084600F07CFAE06841F282014FF0FF399A
:100D30000140022903D0204600F01AFAB5E000F481
:100D40002041B1F5004F0FD1C00306D56168E06ABC
:100D5000884200D80846606006E02069E062606072
:100D6000606901F0C6FEA061A0680022EEB2002812
:100D70000DDAE1688B050AD4C043A06041F49030DD
:100D80002260E0606068411C61600670A5E0E06878
:100D90009046226040F40050E060206968BB6069C2
:100DA00001F0AAFE012704F12405A0B1A08910F4E6
:100DB000407F08D0E06903F0ECFB206118B1E068E7
:100DC00040F4006016E0E7612561E06820F44070BF
:100DD00040F480600EE0E06903F0DBFB0028206156
:100DE000F1D0E06840F4006010F4407FE06002D190
:100DF00040F48070E06020696060E06825696FF011
:100E0000010AC1051FD56168E06A884200D808461A
:100E1000411B04D02246284600F0B4F9F0BBE0683C
:100E2000010203D5E562C4E9015854E0691CE1629E
:100E30006160E16940F48030491EC4E90210304627
:100E40002E70BDE8F087010202D500F480320AE07E
:100E50006068411C61600670E0680A2E40F48030D2
:100E6000E06006D00022E16A6068814203D90B4647
:100E700002E00122F7E70346A7895B1B7F0503D445
:100E8000E7699F4200DDE2B1814200D80146E56298
:100E90000F1AC4E90158002B09DD00E005E02246E5
:100EA0001946284600F06EF908B14846C9E747B12F
:100EB000A069E5626560C01BA061E06840F01000B9
:100EC000E060E068000208D56168A069E562491B3E
:100ED00008446560A0615046B3E73046B1E770B59D
:100EE000C468A50713D0650211D4B2F5807F09D07C
:100EF000B2F5007F06D0B2F5806F08D1012300F172
:100F0000240106E05D1E6FF07F46B54201D301204B
:100F100070BD0161C361416024F470611143C1601F
:100F2000002070BD2DE9F0410C46074616461046DC
:100F300000F06EF82078611C61280AD0722802D077
:100F400077283CD102E00125002405E00225042495
:100F500002E0082448F2020511F8010B2B2806D004
:100F6000622809D011F8010C74280AD00BE045F072
:100F7000030544F00204EFE745F0040544F00104E2
:100F8000EAE744F010043846214601F0B7FD411C61
:100F900015D00021316171604FF40071F560F1618D
:100FA0007061200704D530460222002100F064F869
:100FB000306D40F0010030653046BDE8F081002022
:100FC000FBE72DE9F0410D460646104C206DC107A8
:100FD00004D0410804D020F00104F7E722460EE0D7
:100FE000542003F0D6FA07000ED0206D47F001011F
:100FF0000843542120653846FFF7FCFB3A46294652
:101000003046BDE8F0418DE70020D6E7682000209B
:101010002DE9F04704464FF000094FF0FF37C5684F
:10102000D4E90486A80707D0204600F0D5F830465A
:1010300001F05CFD002802DA3846BDE8F08728059B
:1010400002D5404603F01BF84C212046FFF7D2FBA7
:10105000206D20F0010020654846EEE70446AFF31E
:1010600000802046FFF719F910B500F0FFF8BDE841
:10107000104000F0F5B800002DE9F0410446164696
:101080000D464769007B80072ED0384601F034FDBD
:1010900050BB3EB3012E02D0022E25D104E02046E3
:1010A00000F0FEF805441DE0384601F022FDE1683D
:1010B000002841F01001E16005DA204600F058F800
:1010C0000120BDE8F081C9030BD56268E16A914255
:1010D00000D81146A26911442269891A814200DDB3
:1010E00008460544002D01DA0220EAE7E16A60685B
:1010F000E268814206D29103E06203D522F4003116
:1011000041F01002A6690027AE4213DCE16A814279
:1011100001D90B4600E0034603EB060C2369ACEB58
:10112000030CAC4506DD814201D98C4600E08446C3
:101130009C4505D1A760276042F02000A5620DE024
:10114000AD1BE669AE1B8142A66000D90846C01AF5
:10115000281A20605819606022F0200003490840D6
:10116000E060002084F84870ABE70000BFCFD7FFF5
:10117000C16821F4001141F08001C160002181604B
:10118000016070472DE9F047814614460E464FF046
:10119000FF383248D5685769054209D03846A169F9
:1011A00001F0CAFC002811DB2C48C0430540E56073
:1011B0002B4632464946384601F0C1FCA16920F071
:1011C0000042B21A11440028A16103D02046FFF763
:1011D000CFFF4046BDE8F08770B504460569C06A98
:1011E0006168884200D80846E16821F42011E16076
:1011F000C90312D5A84208D02246411B2846FFF752
:10120000C1FF10B14FF0FF3070BD0020E562C4E9AE
:101210000150E06820F48030E060002070BD10B51F
:101220000446C06820F02000E060A16AA0698842FE
:101230000DD02046FFF7D0FFE06820F4405040F08A
:101240001000E060A06AA0612069E062606044F282
:101250004001E0688843E06010BD0000100002001B
:10126000002801D001F044BC7047000010B50146D1
:1012700002A000F036F8012010BD0000534947528B
:10128000545245443A2052656469726563743A2049
:1012900063616E2774206F70656E3A200000000055
:1012A00010B50146C268900703D0900607D5886A3A
:1012B0000AE0FFF735FB01210160881E10BD8B6934
:1012C000486818440B69C01A91F848301BB191F86E
:1012D0004910401A10BD1103FCD50028FADD401E4C
:1012E00010BD70B505460C460A2000E06D1C01F0EB
:1012F0003DFC35B128780028F8D102E0641C01F0EB
:1013000035FC14B120780028F8D1BDE870400A20DF
:1013100001F02CBCFEE77047FEE7704700214FF05C
:10132000006003F0F3B900000549086810F8082DC3
:1013300010F8043F1A4400F8042C086070470000BD
:10134000D40100200349086870E902231A4404C04C
:1013500008607047D40100200549086830F8082D5E
:1013600030F8043F1A4420F8042C0860704700004D
:10137000D40100200549086810F8082D10F8043F32
:101380001A4000F8042C086070470000D4010020C7
:101390000349086870E902231A4004C008607047D6
:1013A000D40100200549086830F8082D30F8043FC2
:1013B0001A4020F8042C086070470000D401002077
:1013C0000348006810F8041DC9430170704700000D
:1013D000D40100200348006850F8041DC94301608F
:1013E00070470000D40100200348006830F8041D55
:1013F000C943018070470000D401002070B57A4ACB
:101400009CB07A4D11680CAB11F8010B11602A6881
:101410000021121F2A6008E0461A03EB860652F8E4
:10142000044946F8044C491C2A608142F4D31468EC
:1014300011287DD2DFE800F0090B0E12171C232CB7
:1014400036404D5C6C7D90A5BB00002000E00C9800
:10145000A047C3E0DDE90C01A047BFE00CAB93E877
:101460000700A047BAE00CAE96E80F00A047B5E031
:1014700010980CAE009096E80F00A047AEE0DDE9B2
:1014800010010CAECDE9000196E80F00A047A5E0E1
:1014900010AB0CAE93E807008DE8070096E80F004C
:1014A000A0479BE010AE96E80F008DE80F000CAE51
:1014B00096E80F00A04791E011AE96E80F0001AE4C
:1014C00086E80F0010980CAE009096E80F00A04739
:1014D00084E012AE96E80F0002AE86E80F00DDE968
:1014E00010010CAECDE9000196E80F00A04775E0B1
:1014F00013AE96E80F0003AE86E80F0010AB0CAEFB
:1015000093E807008DE8070096E80F00A04765E024
:1015100014AE96E80F0004AE86E80F0010AE96E811
:101520000F008DE80F000CAE96E80F00A04755E0C5
:1015300053E015AE96E80F0005AE86E80F0011AE39
:1015400096E80F0001AE86E80F0010980CAE0090F0
:1015500096E80F00A04741E016AE96E80F0006AEF1
:1015600086E80F0012AE96E80F0002AE86E80F0084
:10157000DDE910010CAECDE9000196E80F00A047AF
:101580002CE017AE96E80F0007AE86E80F0013AE0A
:1015900096E80F0003AE86E80F0010AB0CAE93E8A0
:1015A00007008DE8070096E80F00A04716E018AE88
:1015B00096E80F0008AE86E80F0014AE96E80F001C
:1015C00004AE86E80F0010AE96E80F008DE80F001D
:1015D0000CAE96E80F00A04700E00020296801C18A
:1015E00029601CB070BD0000D8010020D40100208B
:1015F0000549086810F8082D10F8043FB2FBF3F213
:1016000000F8042C08607047D401002004490868E1
:1016100070E9022392FBF3F204C0086070470000F7
:10162000D40100200549086830F9082D30F9043F3D
:1016300092FBF3F220F8042C08607047D4010020DC
:101640000548064A01680B78116801F8043B1160EF
:101650000168491C01607047D8010020D4010020B6
:1016600006480168CA780B6862F31F63044A116870
:1016700008C111600168091D01607047D801002090
:10168000D401002007480168CA78096862F31F6125
:10169000054A0B78116801F8043B11600168091DC7
:1016A00001607047D8010020D40100200348006881
:1016B00050F8041D0978017070470000D401002023
:1016C00007480168CA78096862F31F61054A0B6818
:1016D000116808C111600168091D016070470000B0
:1016E000D8010020D40100200348006850F8041DF0
:1016F0000968016070470000D401002007480168B4
:10170000CA78096862F31F61054A0B88116821F8DD
:10171000043B11600168091D01607047D801002079
:10172000D40100200348006850F8041D0988018096
:1017300070470000D40100200548064A01680B8864
:10174000116821F8043B11600168891C0160704731
:10175000D8010020D4010020074910B5086810F80E
:10176000082D10F8043FB2FBF3F403FB142200F839
:10177000042C086010BD0000D4010020054910B5FC
:10178000086870E9022392FBF3F403FB142204C0FF
:10179000086010BDD4010020074910B5086830F971
:1017A000082D30F9043F92FBF3F403FB142220F8D8
:1017B000042C086010BD0000D40100200549086811
:1017C00010F8082D10F8043F5A4300F8042C086064
:1017D00070470000D40100200349086870E9022323
:1017E0005A4304C008607047D401002005490868C6
:1017F00030F8082D30F8043F5A4320F8042C0860D4
:1018000070470000D40100207047000005490868B7
:1018100010F8082D10F8043F1A4300F8042C086053
:1018200070470000D40100200349086870E90223D2
:101830001A4304C008607047D401002005490868B5
:1018400030F8082D30F8043F1A4320F8042C0860C3
:1018500070470000D401002002480168091F0160A0
:1018600070470000D40100200549086810F8082DD1
:1018700010F8043F9A4000F8042C086070470000FC
:10188000D40100200549086850F8082D10F8043FDD
:101890009A4040F8042C086070470000D4010020F2
:1018A0000549086830F8082D10F8043F9A4020F8E0
:1018B000042C086070470000D40100200549086826
:1018C00010F8082D10F8043FDA4000F8042C0860E6
:1018D00070470000D40100200549086850F8082D21
:1018E00010F8043F1A4140F8042C086070470000CB
:1018F000D40100200549086830F9082D10F8043F8C
:101900001A4120F8042C086070470000D401002020
:101910000548016811F8042C51F8081C0A70016888
:10192000091F016070470000D401002004480168CD
:10193000083906C90A600168091F01607047000084
:10194000D40100200548016831F8042C51F8081C26
:101950000A800168091F016070470000D40100205F
:101960000549086810F8082D10F8043FD21A00F84D
:10197000042C086070470000D40100200349086867
:1019800070E90223D21A04C008607047D401002015
:101990000549086830F8082D30F8043FD21A20F8BD
:1019A000042C086070470000D40100200549086835
:1019B00010F8082D10F8043F5A4000F8042C086075
:1019C00070470000D40100200349086870E9022331
:1019D0005A4004C008607047D401002005490868D7
:1019E00030F8082D30F8043F5A4020F8042C0860E5
:1019F00070470000D401002000B599B0642168460A
:101A0000FEF7F8FE64226946002000F035F8002851
:101A100015DD01220FA1684604F038F988B10122D2
:101A20000DA1684604F032F9002808D10BA100F09E
:101A3000A5F841F2883004F0CEFD03F031FB19B077
:101A400000BD08A1002000F099F80A4800F0D0FD80
:101A5000F5E7000031000000320000007265626F9F
:101A60006F740A006C6973745F7468726561640AEC
:101A700000000000580000202DE9F047894600EBE7
:101A800040011848164600EBC107BD6DD7F85480D9
:101A90000024454511DD386D441BB44200DB14467B
:101AA000F86C224641194846FEF70BFE386D361B8E
:101AB0002544A144A84200D10025A8EB0500B0426E
:101AC00000DA0646002E07DDF86C3246411948461A
:101AD000FEF7F7FD3444354404B1BD652046BDE84A
:101AE000F0870000000100202DE9F041884600EB5E
:101AF00040012148164600EBC104E16A01F00300F1
:101B000002280BD0A06A626A801A401E01D5226AA0
:101B10001044864202DD89072BD006464EB30027CB
:101B2000A06A616A451A6D1E01D5206A0544D4E990
:101B30000801411AA94201DC616A451AB54200DB7D
:101B40003546616AE0692A4608444146FEF7B9FD18
:101B5000606A2F44A844761B28446062606A216A48
:101B6000884201D100206062002ED9D13846BDE8FC
:101B7000F0810020FBE700000001002030B40B00E2
:101B80004FF0000200D104E01C7814B1521C5B1C21
:101B9000FAE730BCFFF7A8BF0FB408B504A900915D
:101BA0006A46039900F004F801B05DF814FB0000E8
:101BB0002DE9F04198B0064607A802904020002584
:101BC000CDE90305CDE9055690460C4614F8011BF6
:101BD000002971D0252908D002A800F0E9FA05985B
:101BE0000028F3DA18B0BDE8F0810020217823291D
:101BF0001BD02B2916D02D290ED030290FD0002232
:101C00002178A1F130030A2B13D202EB820201EBFF
:101C10004202303A641CF3E740F0010007E040F074
:101C2000020004E040F0040001E040F00800641C01
:101C3000DCE70023CFB22E2F0CD100BF14F8011F18
:101C4000A1F130070A2F05D203EB830301EB430315
:101C5000303BF3E76C290DD068290BD0702954D0A4
:101C60000BDC252916D0582931D063290CD06429E2
:101C700013D114E014F8011BECE7732934D0752953
:101C80001BD0782909D122E0D8F80000011DC8F83E
:101C90000010017802A800F08BFA641C9FE7D8F8C6
:101CA00000100F1DC8F800700968CDE900200A2255
:101CB00002A800F0ADF9F0E733E0D8F800100F1DEE
:101CC000C8F800700968CDE900200A2208E0D8F8B9
:101CD00000100F1DC8F800700968CDE9002010221F
:101CE00002A800F0F7F9D8E7D8F80000011DC8F8FD
:101CF0000010076817F8011B0029CED002A800F0D9
:101D000057FA05980028F5DAC7E7D8F80000011D52
:101D1000C8F8001001680820CDE90005034610222C
:101D2000DEE7059800287FF75DAF049820B10246F2
:101D300007A93046FFF7D8FEDDE904010844059005
:101D400050E700004FF40041014802F09CB9000048
:101D5000000801404FF40041014802F092B9000030
:101D60000008014010B50446FFF7F4FF00F08CF8BE
:101D7000FFF7F0FF202000F057F8C4F3074000F011
:101D800053F8C4F3072000F04FF8E0B200F04CF82D
:101D9000BDE81040FFF7D6BF2DE9F0410025104EF9
:101DA0002C4600BF00BF6006040E1021304602F032
:101DB000B8F907460821304602F065F900BF00BFB8
:101DC000012F01D144F001040821304602F059F9F5
:101DD0006D1CEDB2082DE4D32046BDE8F081000073
:101DE000000C014070B516460D460446FFF7B2FFE1
:101DF000032000F019F8C4F3074000F015F8C4F30D
:101E0000072000F011F8E0B200F00EF8002404E022
:101E1000FFF7C2FF3055641CE4B2AC42F8D3BDE812
:101E20007040FFF78FBF000070B5114E05460024CB
:101E300028064FF02001304602D502F024F901E0D7
:101E400002F01FF900BF00BF0821304602F01BF965
:101E50006806050E00BF00BF00BF00BF00BF08211D
:101E6000304602F00EF9641CE4B2082CE0D370BDD9
:101E7000000C014010B5FFF76DFF0420FFF7D4FF01
:101E8000BDE81040FFF75EBF10B5FFF763FF062007
:101E9000FFF7CAFFBDE81040FFF754BF70B5164604
:101EA0000D460446FFF756FFFFF7EEFFFFF752FF20
:101EB0000220FFF7B9FFC4F30740FFF7B5FFC4F3F3
:101EC0000720FFF7B1FFE0B2FFF7AEFF002404E008
:101ED000305DFFF7A9FF641CE4B2AC42F8D3BDE863
:101EE0007040FFF72FBF000010B540F2026003F012
:101EF000C9F840F2036003F0C5F84FF4C06003F086
:101F0000C1F8164C082303221021204602F0BEF827
:101F1000202303221021204602F0B8F84FF400439A
:101F2000032210210E4802F0B1F8102303220421ED
:101F3000204602F0ABF801210A4802F0F7F801212F
:101F4000094802F0F3F80821204602F09AF8FFF75A
:101F5000F9FEBDE81040FFF78DBF0000000C014006
:101F6000000801400001300000023000704710B549
:101F700003F050FD04F094FCBDE8104003F062BD96
:101F80001748016841F0010101604168154A11409C
:101F900041600168144A11400160016821F4802108
:101FA00001604168114A11404160016821F0A0516F
:101FB00001600021C1624FF47F028260C0F880108E
:101FC000D0F8901021F08051C0F890104FF48001AB
:101FD000C0F894100649C0F8981005F007B8000042
:101FE000001002400C00FFE0FFFFF6FEFFFF00DFE5
:101FF0001030002010B503F00DFD034805F050FB34
:10200000BDE8104003F01EBD88070020FEE7000079
:102010002DE9FC5F0E008146DDE90C47C6F10000AA
:1020200098469346824600D40846012503E000BF47
:10203000B0FBFBF06D1C5845FAD2A84500D94546C7
:1020400024B1002E01DB780700D5641EB80702D545
:10205000B8F1000F10D0F8070ED16CB12046641E05
:10206000A84209D92021484600F0A2F8D9F80C006E
:102070000028F2DABDE8FC9F002E02DA56462D2138
:1020800002E0780707D52B21484600F091F8D9F8EF
:102090000C000028EEDB07F00300022810D1B8F195
:1020A000000F0DD164B12046641EA84208D930212A
:1020B000484600F07DF8D9F80C000028F2DAD9E79C
:1020C000CDE9004743465A463146484600F002F8FB
:1020D000D0E700002DE9F84F8246DDE90A4B0126E2
:1020E000984691460D460846374602E0B0FBF9F0A7
:1020F0007F1C4845FAD2B84500D947465FEACB7005
:102100001CD1DCB15FEA8B7002D5B8F1000F02D0B0
:10211000202000900AE03020FBE75046009900F0B4
:1021200047F8DAF80C0000283EDB3CB12046641E7C
:10213000B842F2D802E000BF06FB09F6B5FBF6F1A3
:10214000494501D3012100E000214246A8F10108E0
:10215000012A01DD012000E000200143ECD1DFF87D
:102160004C8000BFB5FBF6F000FB165518F80010C8
:10217000504600F01DF8DAF80C00002803DBB6FB2F
:10218000F9F6002EEED15FEACB700DD0002C0BD00B
:102190002046641EB84207D92021504600F008F8B6
:1021A000DAF80C000028F1DABDE8F88FBC7A0008F4
:1021B00010B50446D4E90130421C934205DB236884
:1021C0001954A260E068401CE060D4E90102824238
:1021D00009D121682069FFF787FCA168884203D0F4
:1021E0004FF0FF30E06010BD0020A06010BD000087
:1021F000002806D00E4910F0FF0F03D0C0B2085CD3
:10220000401C704710F47F4F04D0C0F30720085CD7
:102210000930704710F47F0F04D0C0F30740085C0A
:102220001130704701EB10600078193070470000E2
:102230007C79000803480168814201D00120704781
:1022400000207047C400002030380A2801D2012045
:102250007047002070470000F0B597B00646502246
:102260001A4902A8FEF772FA19A7384604F0F8F8DE
:102270000446304602F054FA0546A04200DA2546EC
:102280003A46294614A003F021FC284602F062FADF
:102290001BA003F01BFC02AF346811E0207AA17B85
:1022A000A4F10C03132802D857F8200000E0159879
:1022B000CDE90001082229461AA003F007FC246892
:1022C000B442EBD117B00020F0BD0000E07A000866
:1022D0006465766963650000252D2A2E7320202011
:1022E00020202020202074797065202020202020AC
:1022F00020202072656620636F756E740A000000EE
:10230000202D2D2D2D2D2D2D2D2D2D2D2D2D2D2D0A
:102310002D2D2D2D2D202D2D2D2D2D2D2D2D2D2DFA
:102320000A000000252D2A2E2A7320252D32307315
:1023300020252D38640A00002DE9FE43074624A617
:10234000304604F08DF80446384602F0E9F90546B7
:10235000A04200DA2546324629461FA003F0B6FB0C
:10236000284602F0F7F925A003F0B0FB3E6829E00B
:10237000B16806F10800A6F10C04814214D0804631
:1023800003F0EBFB218C628CCDE900210290234607
:102390000822294620A003F099FB404604F02AFDBC
:1023A00023A003F093FB0CE003F0D7FB218C628C9D
:1023B000CDE9002102902346082229461DA003F002
:1023C00085FB3668BE42D3D10020BDE8FE83000005
:1023D0006D61696C626F7800252D2A2E7320656E01
:1023E0007472792073697A652073757370656E6491
:1023F000207468726561640A00000000202D2D2D94
:102400002D20202D2D2D2D202D2D2D2D2D2D2D2D23
:102410002D2D2D2D2D2D0A00252D2A2E2A73202518
:102420003034642020253034642025643A000000D4
:102430000A000000252D2A2E2A732025303464201E
:1024400020253034642025640A0000002DE9FF4176
:10245000054602F065F98046014613A214A003F078
:1024600035FB404602F076F91AA003F02FFB082650
:102470002C6812E0A4F10C0704F1080003F06DFBD6
:10248000F97F3A6A03900096CDE901213B46082284
:10249000414618A003F01AFB2468AC42EAD104B00C
:1024A0000020BDE8F08100006D75746578000000C3
:1024B000252D2A2E732020206F776E6572202068CC
:1024C0006F6C642073757370656E642074687265D8
:1024D00061640A00202D2D2D2D2D2D2D2D202D2D2B
:1024E0002D2D202D2D2D2D2D2D2D2D2D2D2D2D2D29
:1024F0002D0A0000252D2A2E2A7320252D382E2A5C
:102500007320253034642025640A00002DE9FC4145
:10251000074602F005F90646092800DA09261CA23A
:1025200031461EA003F0D2FA304602F013F922A081
:1025300003F0CCFA3D6825E0A96805F10800A5F193
:102540000C04814212D0804603F007FBA18BCDE939
:1025500000102346082231461DA003F0B7FA40467A
:1025600004F048FC13A003F0B1FA0AE003F0F5FA16
:10257000A18BCDE9001023460822314618A003F0B4
:10258000A5FA2D68BD42D7D10020BDE8FC8100002E
:1025900073656D6170686F7265000000252D2A2ECD
:1025A00073207620202073757370656E64207468C4
:1025B000726561640A000000202D2D2D202D2D2D27
:1025C0002D2D2D2D2D2D2D2D2D2D2D0A0000000012
:1025D000252D2A2E2A7320253033642025643A00C5
:1025E000252D2A2E2A7320253033642025640A00E5
:1025F000F0B5064687B019490020FFF7CDFA184913
:102600000020FFF7C9FA356823E000BFE969A5F1AA
:102610000C040A4600E0491C08782328FBD0E06A35
:10262000891A411A64235943B1FBF0F1236B276CDB
:10263000CDE90434CDE9021754F81C1F511A0144A6
:10264000CDE90010237E627E06A10020FFF7A4FAE8
:102650002D68B542DAD107B0F0BD0000B87C0008A3
:10266000707C0008253364202538642030782530BC
:1026700038782030782530387820202020253032D6
:1026800064252520202030782530387820253035E5
:1026900064202020202538730A0000002DE9FC4129
:1026A000064602F03DF80746014625A2264803F0FB
:1026B0000DFA384602F04EF824A003F007FA356808
:1026C00038E000BF95F82900A5F10C0400902346DE
:1026D000082239462DA003F0F9F994F834000128B6
:1026E00005D0022805D030B1042806D008E02AA081
:1026F00004E02CA002E02EA000E030A003F0E6F9F8
:10270000A06A014600E0401C0278232AFBD0E26A5E
:10271000401A101A64235843B0FBF2F3D4F830C0C7
:10272000206CCDE9000CE069081A811826A003F09E
:10273000CDF92D68B542C5D10020BDE8FC8100006F
:1027400074687265616400000C7D0008202D2D2DD9
:1027500020202D2D2D2D2D2D2D202D2D2D2D2D2DD0
:102760002D2D2D2D202D2D2D2D2D2D2D2D2D2D20B3
:10277000202D2D2D2D2D2D20202D2D2D2D2D2D2DB0
:102780002D2D2D202D2D2D0A00000000252D2A2E67
:102790002A7320253364200020726561647920202B
:1027A000000000002073757370656E640000000007
:1027B00020696E69742020200000000020636C6F87
:1027C0007365202000000000203078253038782004
:1027D0003078253038782020202025303264252597
:1027E00020202030782530387820253033640A00C6
:1027F0002DE9FC41054601F093FF0646014616A26D
:1028000017A003F063F9304601F0A4FF1EA003F007
:102810005DF92C6815E000BFA4F10C031F460822E7
:10282000D7E90901CDE90001314620A003F04EF9B6
:10283000787AC00701D023A000E025A003F046F974
:102840002468AC42E8D104F025F8014624A003F046
:102850003DF90020BDE8FC8174696D6572000000DF
:10286000252D2A2E732020706572696F646963209C
:10287000202074696D656F75742020202020202031
:10288000666C61670A000000202D2D2D2D2D2D2D49
:102890002D2D2D202D2D2D2D2D2D2D2D2D2D202D82
:1028A0002D2D2D2D2D2D2D2D2D2D0A00252D2A2EB2
:1028B0002A732030782530387820307825303878E1
:1028C000200000006163746976617465640A000029
:1028D00064656163746976617465640A0000000070
:1028E00063757272656E74207469636B3A30782513
:1028F0003038780A0000000010B5816A0A78232A6F
:1029000006D1C2698A4203D9C36A0B4493420CD2EE
:1029100001460AA003F0DAF801F018FE02F0C0FB4D
:10292000FDF7E2FC0028FDD110BD20318A42FBD822
:102930000146BDE8104008A003F0C8B8746872658D
:1029400061643A257320737461636B206F766572DE
:10295000666C6F770A0000007761726E696E673A85
:1029600020257320737461636B20697320636C6F1F
:10297000736520746F20656E64206F6620737461C8
:10298000636B20616464726573732E0A000000003B
:102990002DE9FC411F460446DDE90831DDE90A6501
:1029A000143040600060C4E90827C4E90A310A46CF
:1029B000232118461C3403F0B7F9D4E90301421867
:1029C000D4E901010D4B121F02F0C8FF2060A6766A
:1029D0006676256200206562606120766065A0658C
:1029E0001C3C009023460190054A194604F144001E
:1029F00003F0CEFF0020BDE8FC810000DD6500088B
:102A00001968000810B5029C24F001044472C0E962
:102A100007120021C0E9093114304060006010BD88
:102A2000F0E905124A60D0E90012116040600060D0
:102A3000704700002DE9F041144688460546FDF731
:102A400053FC07462849A86C08420DD1E86C016880
:102A500001291CD001210160286C0B462246066921
:102A600041462846B0473AE02846EE6C02F0BAFDEF
:102A7000844200D30446F088A96C0219C1F38F2167
:102A80008A420FD2316822460144404619E06FF075
:102A900006043846FDF72CFC204603F085FC002098
:102AA000BDE8F0810A1A31680144404603F0FCF8A1
:102AB000F188A86C0A19C0F38F20121A4044401AFA
:102AC000316803F0F1F8E86CC188214489B2C18013
:102AD000AA6CC2F38F22914201D9891AC18038466B
:102AE000FDF706FC2046DBE700FCFF0300207047F3
:102AF000FEE74FF0FF3070470020704710B50446E6
:102B00000C49FDF7C9FE70B10A492046891DFDF741
:102B1000C3FE50B1074920460D31FDF7BDFE30B16F
:102B20004FF0FF3010BD012010BD022010BD03206A
:102B300010BD0000CC7A00084FF0FF30704770B530
:102B400014460D46022804D0032802D001280AD0DA
:102B500007E002F02DFB20B123462A46002102F0B7
:102B60002FFD002070BD4FF0FF3070BD08B58DF80F
:102B70000000684602F0AAFF08BD000010B51BA0C7
:102B800002F0A4FF1C4C21781CA002F09FFF2078CB
:102B9000C00702D01FA002F099FF2078800702D55D
:102BA0001FA002F093FF2078400702D51FA002F07B
:102BB0008DFF2078000702D520A002F087FF207843
:102BC000C00602D520A002F081FF2078000607D5BC
:102BD00009480F300168BDE810401DA002F076BF23
:102BE000BDE810401EA002F071BF000062757320A6
:102BF0006661756C743A0A0029ED00E05343425F48
:102C0000434653525F424653523A30782530325849
:102C10002000000049425553455252200000000058
:102C2000505245434953455252200000494D50529D
:102C3000454349534552522000000000554E53541D
:102C40004B4552522000000053544B455252200035
:102C50005343422D3E424641523A253038580A00ED
:102C60000A00000040F2026002F00CFA0D4D4FF431
:102C70008074234603221021284601F007FA4FF4FE
:102C8000FA762146284601F0FCF9304603F0A3FC11
:102C90002146284601F0F7F9304603F09CFCFEF788
:102CA000ABFEEEE700080140026812B18A4204D987
:102CB0004A600160704728B1024650688842FAD9DC
:102CC00000B148605160704730B500684A6801F152
:102CD0000803884221D003E044688C4203D0204698
:102CE0000028F9D119E0C0B1046800F108052544B5
:102CF0008D4212D152B10D682B44934206D1116816
:102D00006319103119440160516804E00A682244D3
:102D1000083202604968416030BD002AFCD0086872
:102D200003449342F8D1136818440830086050688F
:102D3000486030BD02688A420BD14A6802600020B8
:102D4000486070475068884202D1486850607047B8
:102D50000246002AF6D170472DE9F05F040071D0D9
:102D6000206908B1FFF7F8FF20780026012225230B
:102D700026272825DFF894864FF0270C4FF0220AEB
:102D80004FF02D0B4FF029094FF02E0E1C287DD24D
:102D9000DFE800F07C0EA1A7A7A7A7B9CDDBF9F16A
:102DA000F0EFEEEDECEBEAE97CE8E7E6E5E487E35B
:102DB000A178480718D5D8F80400242100F8011B91
:102DC000A168097A00F8011BA1680989090A00F8BD
:102DD000011BA1688968090C00F8021BA1688968B9
:102DE000090E00F8011CBFE28807A06838D500284A
:102DF00057D0027AD21E0C2A53D2DFE802F0060620
:102E0000241C1C2424242424242409071DD4D8F899
:102E1000041001F8013B00BFC8F80410027B01F860
:102E2000012B8289120A01F8012BC268120C01F8E9
:102E3000022BC06830E0090707D4D8F8041001F865
:102E4000017BE9E7CEE2090705D5D8F80410242272
:102E500001F8012BE0E7D8F8041001F801CBDBE71B
:102E60000028C5D0427CD21E0C2AC5D2DFE802F071
:102E70000606211A1A21212121212121090706D51F
:102E8000D8F80410242201F8012B18E0BBE2D8F88E
:102E9000041001F8013B12E0000E01F8010CC8F823
:102EA00004109BE20907EBD4D8F8041001F8017B69
:102EB00005E00907E4D4D8F8041001F801CB143078
:102EC000C8F8041001F8010B020A01F8012B020CEA
:102ED00001F8022BE0E7D8F8040000F801AB2179F3
:102EE00020E0D8F80400242100F8011B217900F823
:102EF000011BA188090A00F8011B6168090C00F890
:102F0000021B61686CE76078012804D0022807D0B2
:102F100003280AD062E2D8F8040000F8012B23E26B
:102F200002216DE200F8011B1EE2032168E26078D5
:102F3000012804D0022804D0032804D04EE2042142
:102F40005EE205215CE206215AE26078012814D095
:102F5000022814D0032814D040E22AE234E2B6E179
:102F600057E101E1BCE08EE07DE06EE05FE050E023
:102F700041E032E023E014E005E00D2140E20E21C3
:102F80003EE20F213CE26078012804D0022804D000
:102F9000032804D022E2072132E2082130E209218D
:102FA0002EE26078012804D0022804D0032804D03F
:102FB00014E20A2124E20B2122E20C2120E26078B3
:102FC000012804D0022804D0032804D006E21021EE
:102FD00016E2112114E2122112E26078012804D0D5
:102FE000022804D0032804D0F8E1132108E21421B8
:102FF00006E2152104E26078012804D0022804D0FA
:10300000032804D0EAE11621FAE11721F8E118219A
:10301000F6E16078012804D0022804D0032804D007
:10302000DCE11921ECE11A21EAE11B21E8E16078F9
:10303000012804D0022804D0032804D0CEE11C21AA
:10304000DEE11D21DCE11E21DAE16078012804D0F7
:10305000022804D0032804D0C0E11F21D0E12021A0
:10306000CEE12121CCE120690021002892D0C06866
:1030700001E0C068491C0028FBD1D8F804002C22CC
:1030800000F8012B4EE7206910B10178012903D027
:103090000178192915D0A1E1407815E0032818D04E
:1030A0005FF0030000F0E8F998E100BFD8F80400F1
:1030B00000F8015B9BE100BFD8F8040000F8019B19
:1030C0009AE1407800F00F000128EFD00228F3D0F9
:1030D000E4E7D8F804002A2100F8011B2F2121E79A
:1030E000206900288ED0017801298BD18168607811
:1030F000012804D0022812D0032891D120E0D8F86A
:1031000004001431037041700B0A83700B0CC37000
:10311000090E017180F805A08271C27143E0D8F8F0
:10312000040014310B0A0770417083700B0CC370DC
:10313000090E0171232141718271C671022147E09C
:10314000D8F8040014310B0A80F800C04170837075
:103150000B0CC370090E0171242141718271C6717B
:103160000672467203214DE02069002878D001786C
:10317000012975D181686078012804D0022817D010
:1031800003286DD12BE0D8F804001431037041708E
:103190000B0A83700B0CC370090E017180F805A037
:1031A00082710421C17105722F2141720A30DBE066
:1031B000D8F8040014310B0A0770417083700B0CAF
:1031C000C370090E0171232141718271C6710521FD
:1031D000017280F809902F2181720B30C4E0D8F879
:1031E000040014310B0A80F800C0417083700B0C8E
:1031F000C370090E0171242141718271C67106727A
:103200004672062181722A21C1722F2101730D306D
:10321000AAE0206920B30178012921D18168607872
:10322000012804D002281CD0032819D133E0D8F893
:1032300004001431242606700F0A417087700E0CAA
:10324000C6704FEA116C80F804C043718171C77178
:10325000067280F809C080F80AA0C27202735DE0AD
:1032600076E0D8F804001431242303700D0A41706D
:1032700085700B0CC3704FEA116C80F804C0477165
:103280008171C571037280F809C023218172C272F5
:103290000673022162E0D8F8040014314FF02409CB
:1032A00080F800900D0A41700B0C8570C3700F0EF2
:1032B000077180F805C08171C5710372477280F88B
:1032C0000A90C27206734673867303216AE020690E
:1032D000F0B3017801293BD181686078012804D0DE
:1032E000022820D0032879D141E0D8F80400143115
:1032F000242606700F0A417087700E0CC6704FEAC4
:10330000116C80F804C043718171C771067280F836
:1033100009C080F80AA0C2720421017345732B21F1
:1033200081730F3020E0D8F8040014312423037097
:103330000D0A417085700B0CC3704FEA116C80F858
:1033400004C047718171C571037280F809C000E043
:1033500044E023218172C27206730521417380F813
:103360000E902B21C1731030C8F8040036E0D8F855
:10337000040014314FF0240980F800900D0A4170C8
:103380000B0C8570C3700F0E077180F805C081713A
:10339000C5710372477280F80A90C2720673467351
:1033A00086730621C1732A2101742B2141741230C6
:1033B000DAE7D8F8040000F8016B00F8016B00F8B8
:1033C000026B00F8016CCFE7A078000706D46078A4
:1033D00001280AD002280DD0032810D0E06808B1D7
:1033E000FFF7BAFC0020BDE8F09FD8F8040000F811
:1033F00001BBB9E7D8F8040000F801EBB4E72F21CE
:10340000D8F804008EE508204CE600007C0100207E
:103410002DE9F0410446002100F043FD80210D48D4
:10342000FDF7C6F90C480D4D0026066028600948D6
:1034300068605CB12B272046E468C660FFF78CFC0F
:1034400024B1686800F8017B6860F4E70020BDE8FB
:10345000F0810000700F0020700E00207C01002021
:1034600001480078704700008401002001490020D5
:1034700008707047840100200149087000207047DF
:1034800084010020014951F8200070478801002084
:1034900010B500F043F900F0B1F8FFF7E7FF0020A6
:1034A00010BD00002DE9F0412A4FC01C20F003059B
:1034B00005F108063C6800E064681CB12068B04271
:1034C000FAD926E0DFF890807C6819E000214346B5
:1034D00004F1080201EB410003EBC00090F811C0B9
:1034E000BCF1000F02D04069904202D0491C08296B
:1034F000F0DB20466468082902D1083000F02EF87D
:10350000002CE3D13C6800E0646804B32068B0425A
:10351000FAD321686019491B083940F8081F256053
:1035200061684160606021460A48FFF703FC0020A3
:10353000606008482146001DFFF7B6FB04F1080053
:1035400029460446FDF756F92046BDE8F0810020E3
:10355000FBE70000C4010020B00D002010B50838C2
:10356000044601460748FFF7E5FB06482146001FD1
:10357000FFF79AFB21460348BDE81040001FFFF704
:10358000A3BB0000C801002010B580210648FDF74C
:1035900031F906490448782208600260002242603E
:1035A00010464A6010BD0000F00B0020C40100204E
:1035B00010B500F0B3F800F021F800F0E1FCFFF7DF
:1035C00055FFFFF7E1FF002010BD00000A4A00216F
:1035D00001EB810312F8233013B1491C1029F7DBEA
:1035E000102906D001EB810102F8210002EB8100D5
:1035F0007047002070470000700C002010B54FF499
:10360000A0710248FDF7F6F8002010BD700C0020F4
:1036100010B504460220FFF7D9FF08B1047110BDB0
:103620000620FFF729FF002010BD70B506460025D3
:1036300000F0E0FC040001D001260CE0304600F070
:103640001DFA040001D0022605E0304600F080F9A2
:1036500004000CD004260120FFF7B8FF05000AD0B3
:10366000012E0DD0022E0BD0042E0AD108E00D2021
:10367000FFF702FF06E00620FFF7FEFE002070BD08
:10368000AC60AE70284670BD10B504460320FFF74D
:103690009DFF08B1446010BD0620FFF7EDFE00203D
:1036A00010BD10B504460420FFF790FF08B1446038
:1036B00010BD0620FFF7E0FE002010BD10B5044647
:1036C0000620FFF783FF08B1446010BD0620FFF716
:1036D000D3FE002010BD70B505460520FFF776FF2C
:1036E000040016D02846FCF782FF401CFFF7DAFEE4
:1036F00060602846FCF77BFF024629466068FDF7BC
:10370000A0F82846FCF773FF616800220A5420469F
:1037100070BD0620FFF7B0FE002070BD10B59C21E3
:10372000FDF768F8002010BD70B5054602C0002402
:1037300000F0A2FB281D00F0A8FB01263CE01F289A
:1037400016D0142820D015281ED016281CD01728D3
:103750001AD0182818D0192816D06E71D5F89800EC
:1037600070B1284601F071F9E06050B304461CE0E6
:103770006E71D5F8980018B1284601F066F90BE093
:10378000284601F062F90DE06E71D5F89800002826
:10379000284605D001F027FBE0600028E6D104E0D0
:1037A00001F021FB0446C5F89800D5F898000028E0
:1037B00006D0281D00F069FB212801D02028BED1A9
:1037C00070BD281D00F061FBEFE7000070B50646F4
:1037D00024480C46006890F82100C00702D022A0BF
:1037E00002F074F921463046FFF79EFFFFF738FEDE
:1037F00060B1FFF735FEFFF745FE01461BA002F062
:1038000065F900BFFFF72CFE28B125E0D6F8980037
:10381000FFF7FEFDF6E700F009FC00F093F8C0B2F8
:1038200021385D280ED200F08DF8054600F08AF8A8
:10383000044600F087F8C1B22B4622460CA002F0E5
:1038400045F909E000F07EF8044600F07BF80146F7
:1038500022460CA002F03AF93046BDE87040FFF76E
:1038600017BE0000DC0100200A00000025730A00DA
:1038700009272563272C2025642C20307825303813
:10388000780A00000925642C203078253038780A21
:1038900000000000034810B5006802F053FB002050
:1038A00010BD0000DC01002070B5044601F0E4FD0D
:1038B00005002CD0194C2068D0F8A802A8422CD0C2
:1038C00040F24311284601F0FFFD002825D1206871
:1038D000D0F8A80238B101F0B7FD20680021D0F877
:1038E000A80201F06AFE2068502100F51570FCF76F
:1038F00081FF2068002180F8A41280F8A512C0F88A
:10390000A8522846BDE87040054901F056BE214640
:10391000BDE8704003A002F0D9B870BDDC01002002
:103920009538000866696E73683A2063616E206E90
:103930006F742066696E64206465766963653A20F9
:1039400025730A000148006870470000700E0020CF
:1039500070B505461048114E046805E029462068F8
:10396000FCF79AFF30B10C3430688442F6D30C482F
:1039700004680BE0204670BD2846FCF738FE02467E
:1039800029466068FCF752FE20B12468002CF3D170
:10399000002070BD201D70BDE0010020E40100206A
:1039A000D0010020024A1060024801607047000008
:1039B000E0010020E40100207FB51A491A48FFF712
:1039C000F1FF1A491A4800F04FF84FF42B752846BA
:1039D00002F0DEF8174C2060B0B12946FCF70AFF70
:1039E00000231A4614A1206802F09AFA1022144803
:1039F0000A2311028DE80F000023124A12A1783821
:103A000002F070FE38B10AE011A002F05FF84FF04A
:103A1000FF3004B070BD0A48783802F0C5FE0020BF
:103A2000F7E7000074810008F0800008A481000816
:103A300094810008DC0100207368727800000000A7
:103A400068100020D13A0008747368656C6C00003F
:103A50006E6F206D656D6F727920666F722073686E
:103A6000656C6C0A00000000024A106002480160A8
:103A700070470000E8010020EC01002070B5054609
:103A80001048114E046805E029462068FCF704FF41
:103A900030B1103430688442F6D30C4804680BE02F
:103AA000204670BD2846FCF7A2FD02462946606804
:103AB000FCF7BCFD20B12468002CF3D1002070BDC0
:103AC000201D70BDE8010020EC010020CC01002089
:103AD0001CB5DA4E0127306880F8217000F5DC70E3
:103AE000FFF766FD3068D0F8A80270B901F060FBFE
:103AF0003168C1F8A802D24901F05FFD306840F298
:103B00004311D0F8A80201F0DFFCCEA001F0DEFFE7
:103B10004FF0FF3A4FF00D094FF000085146344680
:103B2000306802F031FA0028F8D17CE19DF80010ED
:103B300020681B2906D090F82020012A05D0022AEF
:103B40000CD015E080F820706DE15B2902D080F880
:103B500020800DE0022180F8201064E180F82080B0
:103B600041290ED0422913D0442935D043293FD0D2
:103B70000D294ED009297CD07F297BD00829FCD083
:103B800057E0418C0029D0D0491E89B241840BE016
:103B9000818C428C4B1E9A4202DA521C428402E013
:103BA0000029C2D04384418C502201EB810100EBFB
:103BB000011100F515702631FCF783FD206800F532
:103BC0001570FCF714FD0146206880F8A41280F8F7
:103BD000A51203F0B7F826E190F8A5020028A4D0BA
:103BE0009AA001F073FF206890F8A512491E18E111
:103BF00090F8A51290F8A422914296D200F5157083
:103C0000095C93A001F062FF206890F8A512491C9E
:103C100007E1D0F8A802012301AA002101F0A2FCCB
:103C200001283DD19DF8040028B38DF800000D282F
:103C300038D09DF800200A2A34D0206890F8A412C9
:103C4000502902D3414680F8A48290F8A532C9B227
:103C50008B4273D2CA1A00F5157100F2552019442F
:103C6000184402F047F820689DF8001090F8A5224B
:103C700002E02CE04FE013E000F5157011542068CD
:103C800090F82110C90707D090F8A51200F515701B
:103C9000014470A001F01AFF206890F8A5529AE044
:103CA0008DF80090206803F061F820683B2190F8BF
:103CB000A42200F515701154206890F8A412E1B305
:103CC00000F5157100F5DC70FFF780FD70E0002550
:103CD00003E05EA001F0FAFE6D1C206890F8A502DA
:103CE000A842F6DC25685CA005F5157501F0EEFE2E
:103CF000284600F039FB2A4658A15AA001F0E6FEFA
:103D0000206800F51570FCF772FC216881F8A402A8
:103D100081F8A50287E090F8A512002940D090F81C
:103D2000A422491E521ED2B2C9B280F8A42280F841
:103D3000A5128A422AD9521A01E032E051E000F27B
:103D4000552300F515700B440844194601F0D2FFC5
:103D5000206890F8A42200F5157002F80080206811
:103D600090F8A51200F51570014440A001F0AEFED8
:103D7000206890F8A55203E034A001F0A7FE6D1C66
:103D8000206890F8A402A8424DDBF5E739A001F0C5
:103D90009DFE206890F8A42200F5157002F80080BE
:103DA00041E090F82100C00702D02BA001F08EFE68
:103DB00024A001F08BFE2068502100F51570FCF75F
:103DC00019FD206880F8A48280F8A582A6E61FA0CD
:103DD00001F07CFE6D1C206890F8A402A842F6DC7D
:103DE0000CE000F515700A54206890F82100C00717
:103DF00004D09DF8001016A001F068FE8DF8008038
:103E00002068414690F8A422521CD2B280F8A42225
:103E100090F8A5325B1C80F8A532502A03D380F8B5
:103E2000A41280F8A512206801236A46D0F8A802DF
:103E3000002101F097FB0128C8D177E6DC010020C2
:103E40009538000866696E73683E3E000800000001
:103E500025630000257300000A00000066696E7388
:103E6000683E3E002573257300000000082573207E
:103E7000200800000820080070B50D460446942173
:103E8000FCF7B8FCC4F8905070BD10B504464078FB
:103E900010B10020607002E0204603F0EBFA207AB7
:103EA00010BD70B504000D4632D02078132808D01C
:103EB000152806D0162804D01A2802D0192803D0B5
:103EC00006E00821206904E015B10021206900E026
:103ED0002069FFF7E6FF0021E068FFF7E2FFA07826
:103EE000042801D02843A070206910B14078607088
:103EF0000EE020780122032101280BD0022834D0C3
:103F0000032836D0042834D0052832D0062830D0F3
:103F1000002070BDA0784FF00003C6074FF00205E7
:103F20000FD0A0680028F3D0407C0F2823D2DFE810
:103F300000F0221A201C1C201E1E202020202020E1
:103F400020008007E4D5A0680028E1D0007A0F287F
:103F500011D2DFE800F010080E0A0A0E0C0C0E0E4B
:103F60000E0E0E0E0E006370D2E76270D0E7657021
:103F7000CEE76170CCE70320FFF77EFAC8E70000C8
:103F800010B5C0210248FCF735FC002010BD000030
:103F9000B00D00202DE9F0474FF0FF38144E894650
:103FA00082464446002500BF05EB450006EBC000F5
:103FB000074610225146FCF739FBB8B1787C10B99E
:103FC000601C00D12C466D1C082DEDDB601C0DD053
:103FD00004EB440006EBC000054610225146FCF7F6
:103FE00030FC85F811902046BDE8F0874046FBE79D
:103FF000B00D002070B50C4D0646002404EB4400C3
:1040000005EBC00010223146FCF710FB10B1641C18
:10401000082CF3DB082C04D004EB440005EBC000B3
:1040200070BD002070BD0000B00D002070B50A48C2
:104030000A4C00F580750A4EC4E9010506E000BF90
:1040400010F8011BA06056F821008047A068411BB2
:104050008029F5D370BD0000700E0020D001002033
:10406000307B00088A68002A01DCFCF74DBE521E36
:104070008A604A68C0B2531C4B601070704701F0F0
:1040800023BB416170470161704700002DE9F04397
:1040900001F00F04CD0600D5144300254FF00F09A1
:1040A0005FF0010202FA05F61E4014D007684FEADD
:1040B000850C09FA0CF827EA080704FA0CF848EA14
:1040C0000708282902D0482902D002E0466100E012
:1040D0000661C0F800806D1CADB2082DE2D3082542
:1040E00002FA05F61E4016D047684FEA8508A8F187
:1040F000200809FA08FC27EA0C0704FA08FC4CEA35
:10410000070C282902D0482902D002E0466100E0CD
:104110000661C0F804C06D1CADB2102DE0D3BDE83F
:10412000F0838068084000D001207047F0B5144C3F
:10413000002801DAE36900E06368420D120185B2EC
:10414000C0F301579540C0F30346032F05D0C202C8
:104150000AD50322B240934307E023F070626368FC
:1041600023F07063636002E0AB4343F0706201B11F
:104170002A43002801DAE261F0BD6260F0BD000070
:104180000000014010B5124C2068800702D511A034
:1041900001F09CFC2068400011D50D48C01E00783D
:1041A00008B1FEF7EBFC0A48001F007808B100F0E8
:1041B000F3F90748801E008808B103F0ABFA2068C5
:1041C000002804DABDE8104008A001F07FBC10BD53
:1041D0002CED00E06661696C656420766563746F40
:1041E000722066657463680A000000006465627589
:1041F00067206576656E740A00000000FDF774BEE6
:1042000070B51EA001F062FC2148224D04680BE04D
:10421000022221A12068FCF709FA20B1D4E900129A
:104220001EA001F053FC0C3428688442F0D31F48D0
:10423000046804E01EA0616801F048FC2468002CBA
:10424000F8D11DA001F042FC2048214D046805E092
:10425000D4E9001211A001F039FC1034286884421E
:10426000F6D31C48046804E011A0616801F02EFC3C
:104270002468002CF8D1002070BD00002D2D46755B
:104280006E6374696F6E204C6973743A0A000000A3
:10429000E0010020E40100205F5F0000252D3136A1
:1042A00073202D2D2025730A00000000D00100206E
:1042B0005B6C5D2025730A002D2D56617269616269
:1042C0006C65204C6973743A0A000000E801002014
:1042D000EC010020CC0100200148FDF7BDBF00002B
:1042E000980000200148FEF727B800008800002051
:1042F00010B5074C07A0616901F0E8FB0AA0A169AD
:1043000001F0E4FBE169BDE810400CA001F0DEBB68
:1043100020000020746F74616C206D656D6F727980
:104320003A2025640A00000075736564206D656D90
:104330006F7279203A2025640A0000006D61786967
:104340006D756D20616C6C6F6361746564206D6563
:104350006D6F72793A2025640A0000000148FEF76B
:1043600075B80000780000202DE9F047804600274E
:104370005C483E46B9463C46DFF86CA1056827E03C
:104380005AA0296802F025FE08B34046296802F0C9
:1043900020FEE0B957B956A001F098FB98F800004C
:1043A00020B12C682046FCF722F981467F1C98F842
:1043B0000000BFB230B12046296802F0FDFD48453B
:1043C00000DA8146D5E900124DA001F07FFB0C35E3
:1043D000DAF800008542D3D34D48056822E0404614
:1043E000696802F0F6FDE0B95FB941A001F06EFB2B
:1043F00098F8000028B124B96C682046FCF7F7F85B
:1044000081467F1C98F80000BFB230B12046696831
:1044100002F0D2FD484500DA81463EA0696801F00D
:1044200055FB2D68002DDAD13C483D4F056823E04F
:104430004046296802F0CDFDE8B95EB939A001F027
:1044400045FB98F8000028B124B92C682046FCF7F9
:10445000CEF88146761C98F80000B6B230B12046FE
:10446000296802F0A9FD484500DA8146D5E9001225
:1044700023A001F02BFB103538688542D8D32D4896
:10448000056822E04046696802F0A3FDE0B95EB924
:1044900024A001F01BFB98F8000028B124B96C6837
:1044A0002046FCF7A4F88146761C98F80000B6B2C6
:1044B00030B12046696802F07FFD484500DA814648
:1044C0001DA0696801F002FB2D68002DDAD1002CD7
:1044D00006D04A4621464046BDE8F04701F0D8BF25
:1044E000BDE8F087E0010020E40100205F5F0000EC
:1044F0002D2D66756E6374696F6E3A0A00000000B8
:10450000252D313673202D2D2025730A0000000043
:10451000D00100205B6C5D2025730A00E8010020BB
:10452000EC0100202D2D7661726961626C653A0A9A
:1045300000000000CC0100205B765D2025730A009E
:104540000148FDF7E3BF0000680000200148FEF7C6
:10455000A5B80000580000200148FEF749B9000046
:10456000A800002010B5FBF7BFFE02F0CBFB002037
:1045700010BD70B516460D46FFF728F804461DB16C
:1045800014B12561EE6002E00E20FEF775FF2046B3
:1045900070BD01F0FDBA000010B518A001F096FA48
:1045A0001B4C21781BA001F091FA2078C00702D0A3
:1045B0001EA001F08BFA2078800702D51EA001F022
:1045C00085FA2078000702D51EA001F07FFA207836
:1045D000C00602D51EA001F079FA2078000607D5A2
:1045E0000B480C300168BDE810401CA001F06EBA09
:1045F000BDE810401D4801F069BA00006D656D20EE
:104600006D616E616765206661756C743A0A0000C1
:1046100028ED00E05343425F434653525F4D4653FB
:10462000523A307825303258200000004941434347
:1046300056494F4C200000004441434356494F4CDB
:10464000200000004D554E53544B4552522000005F
:104650004D53544B45525220000000005343422D0D
:104660003E4D4D41523A253038580A0084770008B3
:1046700070B505461F4800240E460068234600F426
:10468000E0614FF4A06081420FD006DCB1F5407FBD
:1046900016D0B1F5806F06D10FE0B1F5C06F09D02B
:1046A000B1F5E06F04D000F027F80224234608E0BB
:1046B000042306E00124032303E00324012300E094
:1046C0000424C4F104008640C3F104010F20C84053
:1046D0001040304305F1E021000181F8000405F0AD
:1046E0001F01012088406909890001F1E021C1F81A
:1046F000000170BD0CED00E002490843024908606A
:10470000704700000000FA050CED00E0024A11407D
:10471000014302480160704780FFFF1F08ED00E081
:1047200070B50646002500F0A9FF346808E000BF18
:10473000A4F10C0001F094FEA84200DD05462468B7
:10474000B442F5D100F0A8FF082D00DC05B908251A
:10475000284670BD10B5044602E003A001F0B6F98A
:10476000641EFAD210BD00002D00000030B51449BF
:1047700043688A68134498420FD05C886CB9CC684F
:10478000A3420AD00C699C4200D108615C68446075
:104790005D6802F10803841AEC5083681344834275
:1047A0000CD05C88002C09D10C69844200D10B61CB
:1047B00041685960991A40680832815030BD000044
:1047C000200000202DE9F04F85B09946DDE90EA5C7
:1047D000109C630602D5DFF814C103E0DFF80CC1BA
:1047E000ACF1110CE30601D524F00104E30701D07C
:1047F000302300E0202300260493A3070BD5002AD2
:1048000002DA2D26524206E0630701D52B2602E08C
:10481000230700D5202600234FF0300EEB461AB9AF
:104820008DF800E001230CE0B9F10A0F14D002F07A
:104830000F0812091CF808800BF803805B1C002A83
:10484000F2D1AB4200DD1D46AAEB050214F0110FB8
:104850004FF0200708D015E00A27B2FBF7F807FB56
:104860001828B2FBF7F2E5E73EB1002A05DD521E3B
:1048700003E0884200D80770401CB2F1000CA2F19E
:104880000102F6DC26B1884201D80670521E401C97
:10489000E40605D508E0884201D8049C0470401C59
:1048A000141EA2F10102F6DC74462E466D1E9E42D5
:1048B0000ADD884200D80470401CF6E7884201D81F
:1048C000E55C0570401C00E05C461D1EA3F1010381
:1048D000F4DC03E0884200D80770401C131EA2F1EC
:1048E0000102F7DC05B0BDE8F08F00008D7A00080A
:1048F00070B5054600F0D7F81EE0284600F0D3F862
:10490000020003D0062C13D0082C0ED00520FEF791
:10491000B3FD281DFFF7B9FA04460828EDD0062C90
:10492000EBD001206871304670BD3146082001E0AF
:1049300031460720FFF71DFE0646EAE770B504463C
:1049400000F081F908E0204600F07DF902000DD06A
:1049500029460C20FFF70DFE0546201DFFF795FAAE
:104960000D28F0D001206071284670BD0520FEF7AB
:1049700083FDF2E770B5054600F049F808E02846E7
:1049800000F045F8020013D021460D20FFF7F1FD9D
:104990000446281DFFF779FA0E28F0D001266E7123
:1049A000281DFFF772FA0C2806D06E71204670BDE4
:1049B0000520FEF761FDECE72846FFF7DBFF214607
:1049C000BDE8704002461320FFF7D3BD70B5044622
:1049D000001DFFF75AFA0126012812D1204600F0E7
:1049E00058F90546201DFFF750FA022803D0012090
:1049F000FEF742FD66712046FFF7E8FF08B14570FB
:104A000070BD66712046BDE8704000F09FB970B57A
:104A10000446FFF793FF08E02046FFF78FFF0200F0
:104A20000DD029460E20FFF7A4FD0546201DFFF7F7
:104A30002CFA0F28F0D001206071284670BD0520A7
:104A4000FEF71AFDF2E7FFF795BF70B504460025A3
:104A5000001DFFF71AFA04280ED0012666712046C1
:104A6000FFF7F1FF0546201DFFF70FFA042803D0DA
:104A70000120FEF701FD6671284670BD70B5044641
:104A80000D46001DFFF701FA1F2804D00120FEF794
:104A9000F3FC01206071102204F114012846FBF799
:104AA000D0FE002070BD70B50546FFF78FFF25E0F2
:104AB0002846FFF78BFF020005D0052C14D00A2CE6
:104AC00015D00B2C16D00520FEF7D6FC281DFFF7BD
:104AD000DCF904460528EBD00A2CE9D00B2CE7D0F2
:104AE00001206871304670BD3146092004E031462E
:104AF0000A2001E031460B20FFF73BFD0646E5E7C3
:104B00002DE9F041054600F04AF88046281DFFF7E0
:104B1000BCF9012608E0002241461820FFF729FDD4
:104B20008046281DFFF7B1F9072815D00928F2D0D3
:104B3000012803D06E714046BDE8F0810027281D92
:104B4000FFF7A3F9022826D06E712846FFF712FF5F
:104B5000040005D007460FE0002241461720DDE79C
:104B600000270FE02846FFF705FFE06008B1044684
:104B700002E00520FEF780FC281DFFF786F90328D8
:104B8000F0D06E71281DFFF780F9022803D00120B4
:104B9000FEF772FC6E713A4641461220BEE770B5D0
:104BA000044686B0001DFFF770F901251C2831D09E
:104BB00006DC012819D01A2832D01B2806D123E0A0
:104BC0001D2833D01E2838D01F2805D00120FEF71D
:104BD00053FC002006B070BD657169462046FFF7A2
:104BE0004DFF6846FEF721FDF4E72046FFF72BFF57
:104BF0000646201DFFF749F9022803D00120FEF7E1
:104C00003BFC65713046E5E7206906B0BDE87040C1
:104C1000FEF73ABD206906B0BDE87040FEF741BD21
:104C2000207C06B0BDE87040FEF7F2BC06B004F18F
:104C30001400BDE87040FEF74EBD06B00020BDE890
:104C40007040FEF73BBD70B50546FFF751FE1EE014
:104C50002846FFF74DFE020003D0112C10D0122C75
:104C600011D00520FEF708FC281DFFF70EF90446B9
:104C70001128EDD0122CEBD001206871304670BDA8
:104C80003146102001E031461120FFF772FC064644
:104C9000EAE770B505460024001DFFF7F6F8012687
:104CA000142812D015280ED016280AD0172806D09E
:104CB000182802D019280AD02AE00C2418E0092468
:104CC00016E0062414E0032412E0012410E0281D5D
:104CD000FFF7DBF8142817D0152813D016280FD0AB
:104CE000172811D018281AD06E710220FEF7C4FBC5
:104CF000281DFFF7CAF8052813D06E71204670BD35
:104D00000724F5E70424F3E7172806D0182806D06F
:104D10006E710320FEF7B0FBF0E70A24E8E70D24EC
:104D2000E6E70E2C10D2DFE804F00F0F0F07070F95
:104D300009090F0B0B0F0D0D0524DFE70824DDE734
:104D40000B24DBE70E24D9E70224D7E710B504468D
:104D5000001DFFF79AF8401F0C283DD2DFE800F055
:104D60002B060B121D3C3C3C323C3C242046BDE84B
:104D70001040FFF72BBE2046FFF728FE0146002219
:104D8000152025E02046FFF721FE04460020FEF70F
:104D900088FC0146224608201AE02046FFF716FE4E
:104DA00001460022162013E02046FFF70FFE0146C1
:104DB00000220F200CE02046FFF708FE01460022EB
:104DC000192005E02046FFF701FE014600221A20C7
:104DD000BDE81040FFF7CDBB012060712046BDE863
:104DE0001040FFF78DBE2DE9F043002485B0054645
:104DF0002646FFF74EFF814669462846FFF73EFEEE
:104E000040B949466846FFF7C5F8002802DA042091
:104E1000FEF732FB281DFFF738F84FF00108032892
:104E20000AD0042860D00C2860D00220FEF724FBB2
:104E3000002005B0BDE8F08369462846FFF71EFE56
:104E400040B949466846FFF7A5F8002802DA042071
:104E5000FEF712FB281DFFF718F80C283BD1284657
:104E6000FFF788FD06003AD06846FEF7DEFB0146F4
:104E700032461320FFF77DFB0646044628E06946CC
:104E80002846FFF7FBFD40B949466846FFF782F820
:104E9000002802DA0420FEF7EFFA281DFEF7F5FFDE
:104EA0000C2818D12846FFF765FD070017D0684683
:104EB000FEF7BBFB01463A464FF0130024B1FFF763
:104EC00058FBF060064603E0FFF753FB0646344606
:104ED000281DFEF7DAFF0328D1D0042804D00120D2
:104EE000FEF7CAFA85F805802046A2E72846FFF7B4
:104EF00041FD0600F3D06846FEF797FB01463246B7
:104F00001320FFF736FB0646044628E0694628468C
:104F1000FFF7B4FD40B949466846FFF73BF8002863
:104F200002DA0420FEF7A8FA281DFEF7AEFF0C28CF
:104F300018D12846FFF71EFD0700D0D06846FEF7BF
:104F400074FB01463A464FF0130024B1FFF711FB02
:104F5000F060064603E0FFF70CFB06463446281DCA
:104F6000FEF793FF0328D1D0B7E7000070B53DA549
:104F700088B02ECD8DE82E003BA23E4BD2E9001228
:104F8000CDE9041238A20446D2E90012CDE9061296
:104F900059680020384AC1F3810525B13749012DF0
:104FA0003BD0022D01D0114637E05A684FF48035CE
:104FB00002F48032AA4219D1DA6A02F48032AA429B
:104FC0000DD1DA6AC2F30315DA6A6D1CC2F303224B
:104FD000921C112A00D11422B1FBF5F15143DA6A77
:104FE00002F00F02521CB1FBF2F200E0244A5968B1
:104FF0005D68C1F38341AD0001D541F010010D2979
:1050000003D00F2907D2891C06E002EB42014900B8
:1050100001EB520101E0491C51435A68C2F30312EB
:105020001DF8025021FA05F25D6804AEC5F30225B1
:105030005B68755D22FA05F5C3F3C22306AEF35C27
:1050400022FA03F344B1012C08D0022C08D0032C1F
:1050500000D1184608B070BD0846FBE71046F9E7D6
:105060002846F7E7000000000000000001020304EA
:10507000060708090010024000127A0040787D01FE
:1050800000093D00054901EB90110A6800F01F037B
:105090000120984002430A6070470000001002405F
:1050A000012080F31388BFF34F8F05480168054A3C
:1050B00001F4E06111430160BFF34F8FFEE7000090
:1050C0000CED00E00400FA0510B5FEF775FC03A036
:1050D000FEF7EAFB01F0D8FF002010BD7561727485
:1050E0003000000070B504460068012816D0FBF7B8
:1050F000FBF80546012001C42068A04209D01438FD
:1051000001F008FB2846FBF7F3F8BDE8704000F01B
:1051100089BE2846BDE87040FBF7EAB870BD10B5FF
:105120000446FBF7E1F8002102C464602460BDE896
:105130001040FBF7DDB82DE9F3410446002701F0EC
:105140000DFB0546FBF7D0F88046206800260128B5
:1051500024D0019848B328462E6301F03BFBA26897
:1051600005F11400211D1060A268AA61A0606961A8
:105170000198002809DD05F1440001AA0021074635
:1051800001F0DEFB384601F017FC4046FBF7B0F8B3
:1051900000F048FE2F6BFBF7A7F8804626604046DC
:1051A000FBF7A6F83846BDE8FC816FF00107F6E78B
:1051B00001480068704700001800002070B5084CD6
:1051C000266800F059F9050008D0206808B100F001
:1051D0003BF94321284600F077F92560304670BD41
:1051E0001800002010B5C3610180044642800020F1
:1051F000A080E08004F10C002061E0600830A06134
:105200006061C80000F0C4FCA06008B1002010BDBF
:105210006FF0040010BD70B515460E460446FBF74E
:1052200063F8A188E288914204D1FBF761F86FF03E
:10523000030070BD2288B1FBF2F302FB1311A268D8
:1052400052F831103160A1882288B1FBF2F302FBE1
:105250001311042202EBC101A26851582960FBF727
:1052600047F8002070BD2DE9FF5F0446002601F0DD
:1052700075FA0546FBF738F80746B04605F1140AFB
:1052800004F1140B05F1440926E00398F0B1284617
:10529000C5F8308001F09EFA5146584600F056FCA1
:1052A0000398002807DD03AA0021484601F048FBC7
:1052B000484601F081FB3846FBF71AF800F0B2FDD2
:1052C0002E6BFBF711F8074636B102E06FF00106CE
:1052D0003846FBF70DF841E0A088E1888842D4D039
:1052E000218880B2B0FBF1F201FB1200A16851F8F5
:1052F000301001980160A0882188B0FBF1F201FB19
:105300001201042000EBC100A16809580298016055
:10531000A088401C80B2A080E188081A6188884279
:1053200014DCE06804F10C01884208D0143801F064
:10533000F1F93846FAF7DCFF00F074FD02E0384678
:10534000FAF7D6FFE2694AB1032105E03846FAF7D9
:10535000CFFFE26912B101212046904704B03046E8
:10536000BDE8F09F2DE9FF5F0446002601F0F6F945
:105370000546FAF7B9FF0746B04605F1140A04F1ED
:105380000C0B05F1440926E00398F0B12846C5F856
:10539000308001F01FFA5146584600F0D7FB0398C1
:1053A000002807DD03AA0021484601F0C9FA484653
:1053B00001F002FB3846FAF79BFF00F033FD2E6B3D
:1053C000FAF792FF074636B102E06FF00106384661
:1053D000FAF78EFF34E0E088A188411A20888142E4
:1053E000D2D0E0882188B0FBF1F201FB1201A26863
:1053F000019842F83100E0882188B0FBF1F201FB0E
:1054000012000421A26801EBC00102985050E0880C
:1054100004F11401401CE0806069884208D014380F
:1054200001F078F93846FAF763FF00F0FBFC07E07B
:105430003846FAF75DFFE26912B102212046904733
:1054400004B03046BDE8F09F10B504460020A17EB0
:1054500029B1491E11F0FF01A17603D010BD4FF014
:10546000FF3010BDE16A21B12046884708B1811D97
:10547000F7D10021218310BD2DE9F041064601F04E
:105480006DF908B100F0FAF80E4C54F8445F08E0EA
:10549000A5F10C0007460822314600F0E9FF50B1A3
:1054A0002D68A542F4D101F059F908B100F0F4F8E3
:1054B0000020BDE8F08101F051F908B100F0ECF8EE
:1054C0003846F6E75400002070B50446807D00257C
:1054D0000E46C0060FD4616A49B1204688470500D0
:1054E00005D00246214611A000F0F0FA1BE0E08A48
:1054F00040F01000E082A07D000705D5207E000767
:1055000002D56FF0060070BDA26A32B13146204666
:105510009047050001D0A81D05D146F00800208362
:10552000A07E401CA076284670BD0000546F206904
:105530006E697469616C697A652064657669636512
:105540003A2573206661696C65642E205468652075
:105550006572726F7220636F6465206973202564C1
:105560000A00000010B5847E2CB1046B34B1A4464F
:10557000BDE8104060474FF0FF3001E06FF00500DC
:1055800000F012FF002010BD2DE9F0411546040087
:105590000F464FF0FF3603D00846FFF76DFF10B1FE
:1055A0003046BDE8F0813A460421204600F00EFC6A
:1055B000E5820020A0762083F3E7C16100207047D8
:1055C00010B5847E2CB1446B34B1A446BDE81040C4
:1055D00060474FF0FF3001E06FF0050000F0E4FE9F
:1055E000002010BDC26C9188D288914201D3881AE4
:1055F00004E0806C511AC0F38F20401A0149086002
:1056000070470000F400002030B5C26C9488D58843
:1056100063189BB2A542938018D8846CC4F38F247E
:10562000A34212D3002303E095882C1B94805B1CBB
:10563000846CC4F38F24B1FBF4F59D42F4D29088BE
:10564000D188884201D3401CD08030BDD488A34289
:10565000FBD3846CC4F38F24A3420CD3002303E058
:1056600095882C1B94805B1C846CC4F38F24B1FB45
:10567000F4F59D42F4D29088E5E7000010B5FAF702
:1056800033FE044A5188491C5180BDE81040FAF7A6
:105690002FBE0000B400002010B5FAF725FE09491E
:1056A0004A88521E12B24A80002A07DC00224A8031
:1056B000FAF71EFEBDE8104000F0B4BBBDE8104094
:1056C000FAF716BEB400002070B5050027D0144CC0
:1056D000616801B18847A068854220D3E0688542AF
:1056E0001DD24FF0FF310F48103D00F04DFC00205F
:1056F00068804FF4F55028802069854200D22561EA
:10570000A1686868691A401AA169081AA061284648
:10571000FFF72CF8BDE87040024800F013BC70BDE4
:10572000200000206806002010B5FBF7F7FD0F48A9
:105730004FF47A710068B0FBF1F0401EB0F1807F49
:105740000AD24FF0E0214861094AF02082F8140D96
:10575000002088610720086100F01CF905A0FFF710
:105760002DFDBDE81040FCF7BFBB0000000000208D
:105770000FE000E0756172743000000070470000B7
:1057800010B504460D48016819B120468847002825
:1057900013D02078400708D500F0E0FF014608A0AC
:1057A00000F094F9FEF7D2FE02E00DA000F08EF9B1
:1057B000FEF7E8FCFFF774FCFEE710BDE4000020F4
:1057C00068617264206661756C74206F6E20746805
:1057D000726561643A2025730D0A0D0A000000000D
:1057E00068617264206661756C74206F6E206861F8
:1057F0006E646C65720D0A0D0A000000FEB5044669
:10580000C8B2002701281AD0022859D0032866D030
:10581000042813D1256D00236A4602A9281DFFF72D
:1058200022FD6A4601A9281DFFF7F5FC80B32F6011
:10583000226A002A02D0204602999047FEBDE56CFC
:10584000206CC168204688470646401C21D0FAF7E4
:105850004BFD0146AA8828688654A888401C80B25F
:10586000A880A26CC2F38F22904200D3AF80AA8896
:10587000E888824208D1401C80B2E880A26CC2F362
:105880008F22904200D3EF800846FAF731FDD7E728
:105890001BE0E0690028D1D0FAF726FD0246A8886F
:1058A000E988884201D3451A04E0081AA16CC1F3C3
:1058B0008F210D1A1046FAF71BFD2946E26924E0F4
:1058C000206DBDE8FE40FFF70DBC01202860206C74
:1058D000DDE90021056902232046A847A8E70D4A13
:1058E000A06C0912104205D1E2692046E56C904790
:1058F0002F60FEBD2046FFF787FEE0690028F8D044
:105900002046FFF76FFEE269014603B02046BDE87E
:10591000F040104700FCFF0330B400240475C4615C
:105920000462084C4462084C8462084CC462084C0F
:105930000463084C4463084CC0E90E4330BC92B287
:10594000FFF722BE09610008256100081960000800
:1059500055620008F1620008AD60000870B50446A9
:10596000121D22F007000022094D403840F8225055
:10597000521C102AFAD301620021416281624FF069
:10598000807200F13005C263C16285E81A0070BD03
:10599000EFBEADDE70B5194845684FF4C060FFF743
:1059A00071FB40F20260FFF76DFB40F20E60FFF703
:1059B00069FB134C4FF48063022204212046FEF75A
:1059C00065FB6315022218212046FEF75FFB0E4897
:1059D0000A4A4FF4E13108328564C0E91021094CCC
:1059E000002211462079FEF743FE2346BDE87040B1
:1059F00040F2035205A10448FFF78EBFA07A0008C9
:105A000000080140F80000208807002075617274CA
:105A10003000000010B5FAF767FC06490446087824
:105A2000401C0870486800B180472046BDE810401F
:105A3000FAF75EBC0C0000200148007870470000B7
:105A40000C00002010B5FAF74FFC06490446087810
:105A5000401E0870886800B180472046BDE81040AD
:105A6000FAF746BC0C00002010B50068143800F0AE
:105A700051FE002010BD00002DE9F04106461446FD
:105A80000D46084600F0A6FE05F11407B4B1012C3E
:105A900018D134680EE000BF95F8351094F8212035
:105AA000A4F11400914204D23946143000F047F8B2
:105AB00002E02468B442EFD1B44203D13946304603
:105AC00000F03DF80020BDE8F08100000FB47F2118
:105AD00070B505AB0D48049A00F0DAFF03467F2845
